{"abi":[{"type":"function","name":"addressValues","inputs":[],"outputs":[],"stateMutability":"nonpayable"},{"type":"function","name":"intValues","inputs":[],"outputs":[],"stateMutability":"nonpayable"},{"type":"function","name":"stringValues","inputs":[],"outputs":[],"stateMutability":"nonpayable"},{"type":"function","name":"uintValues","inputs":[],"outputs":[],"stateMutability":"nonpayable"}],"bytecode":{"object":"0x6080604052348015600f57600080fd5b5060c680601d6000396000f3fe6080604052348015600f57600080fd5b506004361060465760003560e01c8063184c2c0e14604b5780631ec5a79214608e57806331fc3ae514608e5780639ee644a314608e575b600080fd5b608e604080518082018252600a81526974657374537472696e6760b01b6020918201528151808301909252600b82526a3a32b9ba29ba3934b7339960a91b910152565b00fea26469706673582212206f8f0add13ecc3e3d4037062f3381286667eeb17f1293e9087f38a8f74f1e1b464736f6c634300081a0033","linkReferences":{}},"methodIdentifiers":{"addressValues()":"9ee644a3","intValues()":"31fc3ae5","stringValues()":"184c2c0e","uintValues()":"1ec5a792"},"id":54}