{"abi":[{"type":"function","name":"setX","inputs":[{"name":"value","type":"uint256","internalType":"uint256"}],"outputs":[],"stateMutability":"nonpayable"},{"type":"event","name":"TestEvent","inputs":[{"name":"value","type":"uint256","indexed":false,"internalType":"uint256"}],"anonymous":false},{"type":"event","name":"TestIndexedEvent","inputs":[{"name":"value","type":"uint256","indexed":true,"internalType":"uint256"}],"anonymous":false},{"type":"event","name":"TestLibraryEvent","inputs":[{"name":"s","type":"string","indexed":false,"internalType":"string"}],"anonymous":false},{"type":"event","name":"TestMixedEvent","inputs":[{"name":"sender","type":"address","indexed":true,"internalType":"address"},{"name":"x","type":"uint256","indexed":false,"internalType":"uint256"},{"name":"y","type":"int32","indexed":true,"internalType":"int32"},{"name":"s","type":"string","indexed":false,"internalType":"string"}],"anonymous":false}],"bytecode":{"object":"0x6080604052348015600f57600080fd5b506102878061001f6000396000f3fe608060405234801561001057600080fd5b506004361061002b5760003560e01c80634018d9aa14610030575b600080fd5b61004361003e3660046101b2565b610045565b005b60008190556040518181527f1440c4dd67b4344ea1905ec0318995133b550f168b4ee959a0da6b503d7d24149060200160405180910390a160405181907f07767508cdaab5e6ca894eb2724d1e8344dafbaf8cc6deb19237e30d6f0f397c90600090a26007336001600160a01b03167f83786848a82af89258cee9e7321da56c4560d7daf895a2f250cce6b917204c4e836040516101139181526040602082018190526016908201527548656c6c6f2066726f6d206576656e7420617267732160501b606082015260800190565b60405180910390a36101596040518060400160405280601e81526020017f48656c6c6f2066726f6d206c696272617279206576656e742061726773210000815250610178565b600260005461016891906101cb565b15610175576101756101ed565b50565b7f341c9d7f932ecdc5b9b1560ebf06acf348de95682d4f3ed5a55535287cf732b2816040516101a79190610203565b60405180910390a150565b6000602082840312156101c457600080fd5b5035919050565b6000826101e857634e487b7160e01b600052601260045260246000fd5b500690565b634e487b7160e01b600052600160045260246000fd5b602081526000825180602084015260005b818110156102315760208186018101516040868401015201610214565b506000604082850101526040601f19601f8301168401019150509291505056fea2646970667358221220ab8ab9d802364624e34bff18869ea0f5b7902f8dd0160253e930fb2691af1bf464736f6c634300081a0033","linkReferences":{}},"methodIdentifiers":{"setX(uint256)":"4018d9aa"},"id":47}