{"abi":[{"type":"function","name":"triggerFailure","inputs":[],"outputs":[],"stateMutability":"nonpayable"}],"bytecode":{"object":"0x6080604052348015600f57600080fd5b50608980601d6000396000f3fe6080604052348015600f57600080fd5b506004361060285760003560e01c8063bbb7ada014602d575b600080fd5b60336035565b005b603b603d565b565b634e487b7160e01b600052600160045260246000fdfea2646970667358221220a8d0d8ae619d31082ac5f2629fa4ed0aa9ed8aaf7f88f08648f36e416398494564736f6c634300081a0033","linkReferences":{}},"methodIdentifiers":{"triggerFailure()":"bbb7ada0"},"id":41}