{"abi":[{"type":"constructor","inputs":[],"stateMutability":"payable"},{"type":"function","name":"testPredeploy","inputs":[],"outputs":[],"stateMutability":"nonpayable"}],"bytecode":{"object":"0x6080604052600080546001600160a01b03191661123417905560c48060256000396000f3fe6080604052348015600f57600080fd5b506004361060285760003560e01c8063e6c1bfb914602d575b600080fd5b60336035565b005b60008054604080516305ddbd6d60e51b815290516001600160a01b039092169263bbb7ada09260048084019382900301818387803b158015607557600080fd5b505af11580156088573d6000803e3d6000fd5b5050505056fea2646970667358221220dcc00f9fd0d75851cbeb237d58850a95bc93b8cf985f7196b57a72988fba6caa64736f6c634300081a0033","linkReferences":{}},"methodIdentifiers":{"testPredeploy()":"e6c1bfb9"},"id":41}