{"abi":[{"type":"function","name":"testConsoleLog","inputs":[],"outputs":[],"stateMutability":"nonpayable"}],"bytecode":{"object":"0x6080604052348015600f57600080fd5b5061039f8061001f6000396000f3fe608060405234801561001057600080fd5b506004361061002b5760003560e01c80634e03d94314610030575b600080fd5b61003861003a565b005b6002610045816100ea565b60408051808201909152600b81526a1a195b1b1bc81ddbdc9b1960aa1b602082015261007081610132565b636279746560e01b61008181610175565b6040805180820190915260078152661a481a5cc8095960ca1b60208201526100a981856101be565b6040805160608101909152602280825260019160009160649190610348602083013993506100d984848484610207565b6100e1610277565b50505050505050565b61012f8160405160240161010091815260200190565b60408051601f198184030181529190526020810180516001600160e01b0316632d5b6cb960e01b179052610256565b50565b61012f8160405160240161014691906102d3565b60408051601f198184030181529190526020810180516001600160e01b03166305f3bfab60e11b179052610256565b6040516001600160e01b03198216602482015261012f9060440160408051601f198184030181529190526020810180516001600160e01b031663e05f48d160e01b179052610256565b61020382826040516024016101d49291906102ed565b60408051601f198184030181529190526020810180516001600160e01b0316631e53134760e11b179052610256565b5050565b61025084848484604051602401610221949392919061030f565b60408051601f198184030181529190526020810180516001600160e01b0316635d08bb0560e01b179052610256565b50505050565b80516a636f6e736f6c652e6c6f67602083016000808483855afa5050505050565b634e487b7160e01b600052600160045260246000fd5b6000815180845260005b818110156102b357602081850181015186830182015201610297565b506000602082860101526020601f19601f83011685010191505092915050565b6020815260006102e6602083018461028d565b9392505050565b604081526000610300604083018561028d565b90508260208301529392505050565b608081526000610322608083018761028d565b9415156020830152506001600160a01b0392909216604083015260609091015291905056fe252520626f6f6c2069732025742c20616464722069732025732c2075206973202564a264697066735822122080808570b36191ed47bad1ba86921396705bbd32489058f455cba8b93f3ee8ab64736f6c634300081a0033","linkReferences":{}},"methodIdentifiers":{"testConsoleLog()":"4e03d943"},"id":14}