{"abi":[{"type":"function","name":"property_never_specific_values","inputs":[],"outputs":[{"name":"","type":"bool","internalType":"bool"}],"stateMutability":"view"},{"type":"function","name":"setStruct","inputs":[{"name":"ts","type":"tuple","internalType":"struct TestStruct","components":[{"name":"x","type":"uint256","internalType":"uint256"},{"name":"y","type":"uint256","internalType":"uint256"},{"name":"s","type":"string","internalType":"string"},{"name":"i","type":"tuple","internalType":"struct TestStructInner","components":[{"name":"y","type":"uint256","internalType":"uint256"},{"name":"b","type":"bool","internalType":"bool"}]}]}],"outputs":[],"stateMutability":"nonpayable"}],"bytecode":{"object":"0x6080604052348015600f57600080fd5b506104188061001f6000396000f3fe608060405234801561001057600080fd5b50600436106100365760003560e01c80637c39cc161461003b578063d1473b3214610057575b600080fd5b61004361006c565b604051901515815260200160405180910390f35b61006a6100653660046101a6565b610089565b005b600254600090600a14801561008357506005546050145b15905090565b80516002908155602082015160035560408201518291906004906100ad9082610323565b506060919091015180516003830155602001516004909101805460ff191691151591909117905550565b634e487b7160e01b600052604160045260246000fd5b6040516080810167ffffffffffffffff81118282101715610110576101106100d7565b60405290565b604051601f8201601f1916810167ffffffffffffffff8111828210171561013f5761013f6100d7565b604052919050565b60006040828403121561015957600080fd5b6040805190810167ffffffffffffffff8111828210171561017c5761017c6100d7565b604052823581529050806020830135801515811461019957600080fd5b6020919091015292915050565b6000602082840312156101b857600080fd5b813567ffffffffffffffff8111156101cf57600080fd5b820160a081850312156101e157600080fd5b6101e96100ed565b8135815260208083013590820152604082013567ffffffffffffffff81111561021157600080fd5b8201601f8101861361022257600080fd5b803567ffffffffffffffff81111561023c5761023c6100d7565b61024f601f8201601f1916602001610116565b81815287602083850101111561026457600080fd5b8160208401602083013760006020838301015280604085015250505061028d8560608401610147565b6060820152949350505050565b600181811c908216806102ae57607f821691505b6020821081036102ce57634e487b7160e01b600052602260045260246000fd5b50919050565b601f82111561031e57806000526020600020601f840160051c810160208510156102fb5750805b601f840160051c820191505b8181101561031b5760008155600101610307565b50505b505050565b815167ffffffffffffffff81111561033d5761033d6100d7565b6103518161034b845461029a565b846102d4565b6020601f821160018114610385576000831561036d5750848201515b600019600385901b1c1916600184901b17845561031b565b600084815260208120601f198516915b828110156103b55787850151825560209485019460019092019101610395565b50848210156103d35786840151600019600387901b60f8161c191681555b50505050600190811b0190555056fea26469706673582212207acb115f9bde78f864797945a3cf52a960c3f2b22b5ecf7c558f09896b21e1ef64736f6c634300081a0033","linkReferences":{}},"methodIdentifiers":{"property_never_specific_values()":"7c39cc16","setStruct((uint256,uint256,string,(uint256,bool)))":"d1473b32"},"id":62}