{"abi":[{"type":"function","name":"prankAndGetSenderAtDepth","inputs":[{"name":"prankHere","type":"bool","internalType":"bool"},{"name":"prankDepth","type":"int256","internalType":"int256"},{"name":"prankAddress","type":"address","internalType":"address"},{"name":"senderDepth","type":"int256","internalType":"int256"}],"outputs":[{"name":"","type":"address","internalType":"address"}],"stateMutability":"nonpayable"},{"type":"function","name":"test","inputs":[],"outputs":[],"stateMutability":"nonpayable"}],"bytecode":{"object":"0x6080604052600080546001600160a01b03191630179055348015602157600080fd5b506105fe806100316000396000f3fe608060405234801561001057600080fd5b50600436106100365760003560e01c8063de177b781461003b578063f8a8fd6d1461006a575b600080fd5b61004e6100493660046104ef565b610074565b6040516001600160a01b03909116815260200160405180910390f35b610072610260565b005b60025460009060ff1661008657600080fd5b8382121561009357600080fd5b60008212156100a157600080fd5b600a82126100ae57600080fd5b836001540361018f57737109709ecfa91a80626ff3989d68f67f5b1dd12d856101315760405163ca669fa760e01b81526001600160a01b03858116600483015282169063ca669fa790602401600060405180830381600087803b15801561011457600080fd5b505af1158015610128573d6000803e3d6000fd5b5050505061018d565b604051631378659560e21b81526001600160a01b038581166004830152821690634de1965490602401600060405180830381600087803b15801561017457600080fd5b505af1158015610188573d6000803e3d6000fd5b505050505b505b81600154121561025557600180549060006101a983610552565b909155505060008054604051631bc2ef6f60e31b81528715156004820152602481018790526001600160a01b038681166044830152606482018690529091169063de177b78906084016020604051808303816000875af1158015610211573d6000803e3d6000fd5b505050506040513d601f19601f820116820180604052508101906102359190610571565b60018054919250600061024783610595565b919050555080915050610258565b50335b949350505050565b600054600790339030906001600160a01b03168114610281576102816105b2565b6002805460ff191660019081179091556001600160a01b038216906102aa906000908681610074565b6001600160a01b0316146102c0576102c06105b2565b826001600160a01b03166102d960006001866002610074565b6001600160a01b0316146102ef576102ef6105b2565b806001600160a01b031661030860006001866003610074565b6001600160a01b03161461031e5761031e6105b2565b816001600160a01b03166103386000600019866000610074565b6001600160a01b03161461034e5761034e6105b2565b806001600160a01b03166103686000600019866001610074565b6001600160a01b03161461037e5761037e6105b2565b806001600160a01b03166103986000600019866002610074565b6001600160a01b0316146103ae576103ae6105b2565b826001600160a01b03166103c6600180866001610074565b6001600160a01b0316146103dc576103dc6105b2565b806001600160a01b03166103f4600180866002610074565b6001600160a01b03161461040a5761040a6105b2565b806001600160a01b0316610422600180866003610074565b6001600160a01b031614610438576104386105b2565b816001600160a01b03166104526001600019866000610074565b6001600160a01b031614610468576104686105b2565b806001600160a01b03166104826001600019866001610074565b6001600160a01b031614610498576104986105b2565b806001600160a01b03166104b26001600019866002610074565b6001600160a01b0316146104c8576104c86105b2565b50506002805460ff1916905550565b6001600160a01b03811681146104ec57600080fd5b50565b6000806000806080858703121561050557600080fd5b8435801515811461051557600080fd5b935060208501359250604085013561052c816104d7565b9396929550929360600135925050565b634e487b7160e01b600052601160045260246000fd5b60006001600160ff1b01820161056a5761056a61053c565b5060010190565b60006020828403121561058357600080fd5b815161058e816104d7565b9392505050565b6000600160ff1b82016105aa576105aa61053c565b506000190190565b634e487b7160e01b600052600160045260246000fdfea2646970667358221220f1f5120fb8ceb2dbd9f52554ef64c55f5e4a615d295fa4a3b1c65b2c16b0bd2364736f6c634300081a0033","linkReferences":{}},"methodIdentifiers":{"prankAndGetSenderAtDepth(bool,int256,address,int256)":"de177b78","test()":"f8a8fd6d"},"id":28}