{"abi":[{"type":"function","name":"property_never_specific_values","inputs":[],"outputs":[{"name":"","type":"bool","internalType":"bool"}],"stateMutability":"view"},{"type":"function","name":"setX","inputs":[{"name":"value","type":"uint256","internalType":"uint256"}],"outputs":[],"stateMutability":"nonpayable"},{"type":"function","name":"setY","inputs":[{"name":"value","type":"uint256","internalType":"uint256"}],"outputs":[],"stateMutability":"nonpayable"}],"bytecode":{"object":"0x6080604052348015600f57600080fd5b506101278061001f6000396000f3fe6080604052348015600f57600080fd5b5060043610603c5760003560e01c80634018d9aa14604157806368d466b81460525780637c39cc16146061575b600080fd5b6050604c36600460b3565b607b565b005b6050605d36600460b3565b608a565b60676099565b604051901515815260200160405180910390f35b608481600360cb565b60005550565b609381600960cb565b60015550565b60008054600a14801560ad57506001546050145b15905090565b60006020828403121560c457600080fd5b5035919050565b8082018082111560eb57634e487b7160e01b600052601160045260246000fd5b9291505056fea26469706673582212200a6a8752a47873c9c7e99ee4460400d870dd75d10502f3b12357503c63edac6064736f6c634300081a0033","linkReferences":{}},"methodIdentifiers":{"property_never_specific_values()":"7c39cc16","setX(uint256)":"4018d9aa","setY(uint256)":"68d466b8"},"id":63}