{"abi":[{"type":"constructor","inputs":[],"stateMutability":"nonpayable"},{"type":"function","name":"destroyIfOwner","inputs":[],"outputs":[],"stateMutability":"nonpayable"}],"bytecode":{"object":"0x6080604052348015600f57600080fd5b50600080546001600160a01b03191633179055608580602f6000396000f3fe6080604052348015600f57600080fd5b506004361060285760003560e01c806312cfe96514602d575b600080fd5b60336035565b005b6000546001600160a01b03163314604b57600080fd5b6000fffea26469706673582212206a615615ad81535207104d84f9ee8abb86962249b83bae155805ec93d079a02c64736f6c634300081a0033","linkReferences":{}},"methodIdentifiers":{"destroyIfOwner()":"12cfe965"},"id":51}