{"abi":[{"type":"constructor","inputs":[],"stateMutability":"nonpayable"},{"type":"function","name":"destroyContractAndTriggerFailure","inputs":[{"name":"value","type":"uint256","internalType":"uint256"}],"outputs":[],"stateMutability":"nonpayable"}],"bytecode":{"object":"0x6080604052348015600f57600080fd5b50604051601a90605a565b604051809103906000f0801580156035573d6000803e3d6000fd5b50600080546001600160a01b0319166001600160a01b03929092169190911790556066565b60b48061017783390190565b610102806100756000396000f3fe6080604052348015600f57600080fd5b506004361060285760003560e01c8063af55ef9f14602d575b600080fd5b603c6038366004609e565b603e565b005b60008054604080516312cfe96560e01b815290516001600160a01b03909216926312cfe9659260048084019382900301818387803b158015607e57600080fd5b505af11580156091573d6000803e3d6000fd5b50505050609b60b6565b50565b60006020828403121560af57600080fd5b5035919050565b634e487b7160e01b600052600160045260246000fdfea26469706673582212207e78292a0db52cb55ed540a41fd844ea122f6d2141f0064cc2ca4621d501ed0e64736f6c634300081a00336080604052348015600f57600080fd5b50600080546001600160a01b03191633179055608580602f6000396000f3fe6080604052348015600f57600080fd5b506004361060285760003560e01c806312cfe96514602d575b600080fd5b60336035565b005b6000546001600160a01b03163314604b57600080fd5b6000fffea26469706673582212206a615615ad81535207104d84f9ee8abb86962249b83bae155805ec93d079a02c64736f6c634300081a0033","linkReferences":{}},"methodIdentifiers":{"destroyContractAndTriggerFailure(uint256)":"af55ef9f"},"id":51}