{"abi":[{"type":"function","name":"destroy","inputs":[],"outputs":[],"stateMutability":"nonpayable"}],"bytecode":{"object":"0x6080604052348015600f57600080fd5b50606b80601d6000396000f3fe6080604052348015600f57600080fd5b506004361060285760003560e01c806383197ef014602d575b600080fd5b60336000ff5b00fea26469706673582212208633fed8c1bd868284da1b4111cbf8325d9fafafbe925acf04f2f9683161ce3b64736f6c634300081a0033","linkReferences":{}},"methodIdentifiers":{"destroy()":"83197ef0"},"id":43}