{"abi":[{"type":"function","name":"deployInner","inputs":[],"outputs":[{"name":"","type":"address","internalType":"address"}],"stateMutability":"nonpayable"}],"bytecode":{"object":"0x6080604052348015600f57600080fd5b506104258061001f6000396000f3fe608060405234801561001057600080fd5b506004361061002b5760003560e01c8063946c372414610030575b600080fd5b610038610054565b6040516001600160a01b03909116815260200160405180910390f35b600080600760405161006590610143565b908152604060208201819052601b908201527f48656c6c6f2066726f6d206465706c6f796d656e7420617267732100000000006060820152608001604051809103906000f0801580156100bc573d6000803e3d6000fd5b50604051632e5763f960e01b815260206004820152601560248201527448656c6c6f2066726f6d2063616c6c20617267732160581b60448201529091506001600160a01b03821690632e5763f990606401600060405180830381600087803b15801561012757600080fd5b505af115801561013b573d6000803e3d6000fd5b505050505090565b61029f806101518339019056fe608060405234801561001057600080fd5b5060405161029f38038061029f83398101604081905261002f9161004e565b50600055610125565b634e487b7160e01b600052604160045260246000fd5b6000806040838503121561006157600080fd5b825160208401519092506001600160401b0381111561007f57600080fd5b8301601f8101851361009057600080fd5b80516001600160401b038111156100a9576100a9610038565b604051601f8201601f19908116603f011681016001600160401b03811182821017156100d7576100d7610038565b6040528181528282016020018710156100ef57600080fd5b60005b8281101561010e576020818501810151838301820152016100f2565b506000602083830101528093505050509250929050565b61016b806101346000396000f3fe608060405234801561001057600080fd5b506004361061002b5760003560e01c80632e5763f914610030575b600080fd5b61004361003e366004610066565b610045565b005b61004d61011f565b50565b634e487b7160e01b600052604160045260246000fd5b60006020828403121561007857600080fd5b813567ffffffffffffffff81111561008f57600080fd5b8201601f810184136100a057600080fd5b803567ffffffffffffffff8111156100ba576100ba610050565b604051601f8201601f19908116603f0116810167ffffffffffffffff811182821017156100e9576100e9610050565b60405281815282820160200186101561010157600080fd5b81602084016020830137600091810160200191909152949350505050565b634e487b7160e01b600052600160045260246000fdfea2646970667358221220bcf2f649d7d461425998019c73cef7113efe7826ae4d04474e0ebf49843d8b3a64736f6c634300081a0033a2646970667358221220fce7c7d99f181fb23eb9815b2de8ab73eefd7abd922e61ab48345606e56e855064736f6c634300081a0033","linkReferences":{}},"methodIdentifiers":{"deployInner()":"946c3724"},"id":45}