{"abi":[{"type":"function","name":"failing_assert_method","inputs":[{"name":"value","type":"uint256","internalType":"uint256"}],"outputs":[],"stateMutability":"nonpayable"},{"type":"function","name":"property_failing_property","inputs":[],"outputs":[{"name":"","type":"bool","internalType":"bool"}],"stateMutability":"view"}],"bytecode":{"object":"0x6080604052348015600f57600080fd5b5060c980601d6000396000f3fe6080604052348015600f57600080fd5b506004361060325760003560e01c8063889cace01460375780639b2c9084146048575b600080fd5b604660423660046065565b605c565b005b604080516000815290519081900360200190f35b6062607d565b50565b600060208284031215607657600080fd5b5035919050565b634e487b7160e01b600052600160045260246000fdfea2646970667358221220557127847ea4ba12b5fbef7c13e2fc55844d0d14d9320c8c1df4144bc31bc79d64736f6c634300081a0033","linkReferences":{}},"methodIdentifiers":{"failing_assert_method(uint256)":"889cace0","property_failing_property()":"9b2c9084"},"id":1}