{"abi":[{"type":"function","name":"f","inputs":[],"outputs":[],"stateMutability":"nonpayable"},{"type":"function","name":"g","inputs":[],"outputs":[],"stateMutability":"nonpayable"},{"type":"function","name":"h","inputs":[],"outputs":[],"stateMutability":"nonpayable"},{"type":"function","name":"i","inputs":[],"outputs":[],"stateMutability":"nonpayable"},{"type":"function","name":"optimize_b","inputs":[],"outputs":[{"name":"","type":"int256","internalType":"int256"}],"stateMutability":"view"},{"type":"function","name":"property_a","inputs":[],"outputs":[{"name":"","type":"bool","internalType":"bool"}],"stateMutability":"view"},{"type":"event","name":"Counter","inputs":[{"name":"value","type":"uint256","indexed":false,"internalType":"uint256"}],"anonymous":false}],"bytecode":{"object":"0x608060405260016000556002600155348015601957600080fd5b506101cd806100296000396000f3fe608060405234801561001057600080fd5b50600436106100625760003560e01c806326121ff0146100675780634169c18b146100715780636bfdc44e14610086578063b8c9d3651461009c578063e2179b8e146100a4578063e5aa3d58146100ac575b600080fd5b61006f6100b4565b005b60405160001981526020015b60405180910390f35b600054604051606490911415815260200161007d565b61006f610104565b61006f610116565b61006f610161565b60016000808282546100c69190610170565b90915550506000546040519081527f06902210c1ce472150a3254f11d8d646daf303c7526a89857bda9e9a5f7b8fd3906020015b60405180910390a1565b60036000808282546100c69190610170565b6002600160008282546101299190610170565b90915550506001546040519081527f06902210c1ce472150a3254f11d8d646daf303c7526a89857bda9e9a5f7b8fd3906020016100fa565b60046001600082825461012991905b8082018082111561019157634e487b7160e01b600052601160045260246000fd5b9291505056fea2646970667358221220b1cc1d3447e68e799dbdcf77d040fff4b446071c5863ea712c9e7e8a01fa8c0064736f6c634300081a0033","linkReferences":{}},"methodIdentifiers":{"f()":"26121ff0","g()":"e2179b8e","h()":"b8c9d365","i()":"e5aa3d58","optimize_b()":"4169c18b","property_a()":"6bfdc44e"},"id":52}