{"abi":[{"type":"function","name":"property_never_specific_values","inputs":[],"outputs":[{"name":"","type":"bool","internalType":"bool"}],"stateMutability":"view"},{"type":"function","name":"setString","inputs":[{"name":"value","type":"string","internalType":"string"}],"outputs":[],"stateMutability":"nonpayable"}],"bytecode":{"object":"0x60c0604052600d60809081526c616e4578616374537472696e6760981b60a05260009061002c90826100de565b5034801561003957600080fd5b5061019c565b634e487b7160e01b600052604160045260246000fd5b600181811c9082168061006957607f821691505b60208210810361008957634e487b7160e01b600052602260045260246000fd5b50919050565b601f8211156100d957806000526020600020601f840160051c810160208510156100b65750805b601f840160051c820191505b818110156100d657600081556001016100c2565b50505b505050565b81516001600160401b038111156100f7576100f761003f565b61010b816101058454610055565b8461008f565b6020601f82116001811461013f57600083156101275750848201515b600019600385901b1c1916600184901b1784556100d6565b600084815260208120601f198516915b8281101561016f578785015182556020948501946001909201910161014f565b508482101561018d5786840151600019600387901b60f8161c191681555b50505050600190811b01905550565b610396806101ab6000396000f3fe608060405234801561001057600080fd5b50600436106100365760003560e01c80637c39cc161461003b5780637fcaf66614610057575b600080fd5b61004361006c565b604051901515815260200160405180910390f35b61006a6100653660046100ea565b6100c4565b005b60008060405160200161007f91906101dd565b6040516020818303038152906040528051906020012060016040516020016100a791906101dd565b604051602081830303815290604052805190602001201415905090565b60016100d082826102a1565b5050565b634e487b7160e01b600052604160045260246000fd5b6000602082840312156100fc57600080fd5b813567ffffffffffffffff81111561011357600080fd5b8201601f8101841361012457600080fd5b803567ffffffffffffffff81111561013e5761013e6100d4565b604051601f8201601f19908116603f0116810167ffffffffffffffff8111828210171561016d5761016d6100d4565b60405281815282820160200186101561018557600080fd5b81602084016020830137600091810160200191909152949350505050565b600181811c908216806101b757607f821691505b6020821081036101d757634e487b7160e01b600052602260045260246000fd5b50919050565b60008083546101eb816101a3565b600182168015610202576001811461021757610247565b60ff1983168652811515820286019350610247565b86600052602060002060005b8381101561023f57815488820152600190910190602001610223565b505081860193505b509195945050505050565b601f82111561029c57806000526020600020601f840160051c810160208510156102795750805b601f840160051c820191505b818110156102995760008155600101610285565b50505b505050565b815167ffffffffffffffff8111156102bb576102bb6100d4565b6102cf816102c984546101a3565b84610252565b6020601f82116001811461030357600083156102eb5750848201515b600019600385901b1c1916600184901b178455610299565b600084815260208120601f198516915b828110156103335787850151825560209485019460019092019101610313565b50848210156103515786840151600019600387901b60f8161c191681555b50505050600190811b0190555056fea2646970667358221220fd8b452d4c9f677a24812ea95cabeb826b38e8ab4d1d9ccd5fe4a73cf7a2913164736f6c634300081a0033","linkReferences":{}},"methodIdentifiers":{"property_never_specific_values()":"7c39cc16","setString(string)":"7fcaf666"},"id":61}