{"abi":[{"type":"constructor","inputs":[],"stateMutability":"nonpayable"},{"type":"function","name":"testPrecompileAndFail","inputs":[],"outputs":[],"stateMutability":"nonpayable"}],"bytecode":{"object":"0x6080604052348015600f57600080fd5b50600080546001600160a01b031916737109709ecfa91a80626ff3989d68f67f5b1dd12d17905561028e806100456000396000f3fe608060405234801561001057600080fd5b506004361061002b5760003560e01c8063d76bced214610030575b600080fd5b61003861003a565b005b6040805180820182526004808252637472756560e01b60208301526000805493516338ee73ed60e11b81526001928101839052919390916001600160a01b03909116906371dce7da906024016000604051808303816000875af11580156100a5573d6000803e3d6000fd5b505050506040513d6000823e601f3d908101601f191682016040526100cd9190810190610171565b9050816040516020016100e09190610226565b60405160208183030381529060405280519060200120816040516020016101079190610226565b604051602081830303815290604052805190602001201461012a5761012a610242565b610132610242565b505050565b634e487b7160e01b600052604160045260246000fd5b60005b83811015610168578181015183820152602001610150565b50506000910152565b60006020828403121561018357600080fd5b815167ffffffffffffffff81111561019a57600080fd5b8201601f810184136101ab57600080fd5b805167ffffffffffffffff8111156101c5576101c5610137565b604051601f8201601f19908116603f0116810167ffffffffffffffff811182821017156101f4576101f4610137565b60405281815282820160200186101561020c57600080fd5b61021d82602083016020860161014d565b95945050505050565b6000825161023881846020870161014d565b9190910192915050565b634e487b7160e01b600052600160045260246000fdfea264697066735822122043798afe3f8958bcd6dec496ebd8a0e829a64d740560ca1e09d88615517b020c64736f6c634300081a0033","linkReferences":{}},"methodIdentifiers":{"testPrecompileAndFail()":"d76bced2"},"id":46}