{"abi":[{"type":"constructor","inputs":[],"stateMutability":"nonpayable"},{"type":"function","name":"testABIDecode","inputs":[],"outputs":[],"stateMutability":"nonpayable"},{"type":"function","name":"testUTF8","inputs":[],"outputs":[],"stateMutability":"nonpayable"}],"bytecode":{"object":"0x6080604052348015600f57600080fd5b50600080546001600160a01b031916737109709ecfa91a80626ff3989d68f67f5b1dd12d179055610682806100456000396000f3fe608060405234801561001057600080fd5b50600436106100365760003560e01c80632fbc96a51461003b57806390ef1b6c14610045575b600080fd5b61004361004d565b005b610043610224565b60408051600380825260808201909252600091816020015b60608152602001906001900390816100655790505090506040518060400160405280600381526020016218db5960ea1b815250816000815181106100ab576100ab6103c0565b6020026020010181905250604051806040016040528060028152602001612f4360f01b815250816001815181106100e4576100e46103c0565b60200260200101819052506040518060400160405280601a81526020017f6563686f7c736574202f702064756d6d795661723d68656c6c6f00000000000081525081600281518110610138576101386103c0565b602090810291909101015260008054604051638916046760e01b81526001600160a01b03909116906389160467906101749085906004016103fa565b6000604051808303816000875af1158015610193573d6000803e3d6000fd5b505050506040513d6000823e601f3d908101601f191682016040526101bb91908101906104f2565b6040516468656c6c6f60d81b602082015290915081906025015b60405160208183030381529060405280519060200120816040516020016101fc9190610543565b604051602081830303815290604052805190602001201461021f5761021f61055f565b505050565b60408051600380825260808201909252600091816020015b606081526020019060019003908161023c5790505090506040518060400160405280600381526020016218db5960ea1b81525081600081518110610282576102826103c0565b6020026020010181905250604051806040016040528060028152602001612f4360f01b815250816001815181106102bb576102bb6103c0565b602002602001018190525060405180610100016040528060d7815260200161057660d79139816002815181106102f3576102f36103c0565b602090810291909101015260008054604051638916046760e01b81526001600160a01b039091169063891604679061032f9085906004016103fa565b6000604051808303816000875af115801561034e573d6000803e3d6000fd5b505050506040513d6000823e601f3d908101601f1916820160405261037691908101906104f2565b905060008180602001905181019061038e91906104f2565b6040516468656c6c6f60d81b60208201529091506025016101d5565b634e487b7160e01b600052604160045260246000fd5b634e487b7160e01b600052603260045260246000fd5b60005b838110156103f15781810151838201526020016103d9565b50506000910152565b6000602082016020835280845180835260408501915060408160051b86010192506020860160005b8281101561046e57603f198786030184528151805180875261044b8160208901602085016103d6565b601f01601f19169590950160209081019550938401939190910190600101610422565b50929695505050505050565b60008067ffffffffffffffff841115610495576104956103aa565b50604051601f19601f85018116603f0116810181811067ffffffffffffffff821117156104c4576104c46103aa565b6040528381529050808284018510156104dc57600080fd5b6104ea8460208301856103d6565b509392505050565b60006020828403121561050457600080fd5b815167ffffffffffffffff81111561051b57600080fd5b8201601f8101841361052c57600080fd5b61053b8482516020840161047a565b949350505050565b600082516105558184602087016103d6565b9190910192915050565b634e487b7160e01b600052600160045260246000fdfe6563686f7c736574202f702064756d6d795661723d3078303030303030303030303030303030303030303030303030303030303030303030303030303030303030303030303030303030303030303030303030303032303030303030303030303030303030303030303030303030303030303030303030303030303030303030303030303030303030303030303030303030303030303536383635364336433646303030303030303030303030303030303030303030303030303030303030303030303030303030303030303030303030303030303030a2646970667358221220076c57e13979ba7b0606d2d71d0f4989fddff1a5d6d35b1d4aa9316bb1e826e464736f6c634300081a0033","linkReferences":{}},"methodIdentifiers":{"testABIDecode()":"90ef1b6c","testUTF8()":"2fbc96a5"},"id":17}