{"abi":[{"type":"constructor","inputs":[],"stateMutability":"payable"},{"type":"function","name":"dummy","inputs":[],"outputs":[],"stateMutability":"nonpayable"},{"type":"function","name":"property_contract_has_no_balance","inputs":[],"outputs":[{"name":"","type":"bool","internalType":"bool"}],"stateMutability":"nonpayable"}],"bytecode":{"object":"0x608060405260838060116000396000f3fe6080604052348015600f57600080fd5b506004361060325760003560e01c806332e43a11146037578063c368ab95146039575b600080fd5b005b604080514715815290519081900360200190f3fea264697066735822122061c56651b6386db88b0eceefde0abb4a59aa93a571c04fa5024434a32089403a64736f6c634300081a0033","linkReferences":{}},"methodIdentifiers":{"dummy()":"32e43a11","property_contract_has_no_balance()":"c368ab95"},"id":34}