{"abi":[{"type":"constructor","inputs":[],"stateMutability":"payable"},{"type":"function","name":"dummy","inputs":[],"outputs":[],"stateMutability":"nonpayable"},{"type":"function","name":"property_contract_has_balance","inputs":[],"outputs":[{"name":"","type":"bool","internalType":"bool"}],"stateMutability":"nonpayable"}],"bytecode":{"object":"0x6080604052608c8060116000396000f3fe6080604052348015600f57600080fd5b506004361060325760003560e01c806332e43a11146037578063a2109fa2146039575b600080fd5b005b60408051670de0b6b3a76400004714815290519081900360200190f3fea2646970667358221220f3c710f8adb15998dc5d837b73942029eb050ee6bdb333f7595d7deab175c91564736f6c634300081a0033","linkReferences":{}},"methodIdentifiers":{"dummy()":"32e43a11","property_contract_has_balance()":"a2109fa2"},"id":34}