{"abi":[{"type":"function","name":"dummyFunction","inputs":[{"name":"x","type":"uint256","internalType":"uint256"}],"outputs":[],"stateMutability":"nonpayable"},{"type":"function","name":"property_inner_deployment","inputs":[],"outputs":[{"name":"","type":"bool","internalType":"bool"}],"stateMutability":"view"}],"bytecode":{"object":"0x6080604052348015600f57600080fd5b5060a980601d6000396000f3fe6080604052348015600f57600080fd5b506004361060325760003560e01c806323a34709146037578063d2c1decb146047575b600080fd5b60456042366004605b565b50565b005b604080516000815290519081900360200190f35b600060208284031215606c57600080fd5b503591905056fea26469706673582212205f74003157d71a224da4dc6b080823b3f89ce47a8c943777fcd210641d9f6bf364736f6c634300081a0033","linkReferences":{}},"methodIdentifiers":{"dummyFunction(uint256)":"23a34709","property_inner_deployment()":"d2c1decb"},"id":38}