{"abi":[{"type":"constructor","inputs":[],"stateMutability":"nonpayable"},{"type":"function","name":"dummyFunction","inputs":[{"name":"x","type":"uint256","internalType":"uint256"}],"outputs":[],"stateMutability":"nonpayable"}],"bytecode":{"object":"0x6080604052348015600f57600080fd5b50604051601a90605a565b604051809103906000f0801580156035573d6000803e3d6000fd5b50600080546001600160a01b0319166001600160a01b03929092169190911790556066565b60c6806100ff83390190565b608b806100746000396000f3fe6080604052348015600f57600080fd5b506004361060285760003560e01c806323a3470914602d575b600080fd5b603b6038366004603d565b50565b005b600060208284031215604e57600080fd5b503591905056fea264697066735822122023d38817b3e40adc1b6e6c7e471b6ef4b8a51a6abcb0c13d950770391844efcd64736f6c634300081a00336080604052348015600f57600080fd5b5060a980601d6000396000f3fe6080604052348015600f57600080fd5b506004361060325760003560e01c806323a34709146037578063d2c1decb146047575b600080fd5b60456042366004605b565b50565b005b604080516000815290519081900360200190f35b600060208284031215606c57600080fd5b503591905056fea26469706673582212205f74003157d71a224da4dc6b080823b3f89ce47a8c943777fcd210641d9f6bf364736f6c634300081a0033","linkReferences":{}},"methodIdentifiers":{"dummyFunction(uint256)":"23a34709"},"id":38}