{"abi":[{"type":"constructor","inputs":[],"stateMutability":"nonpayable"},{"type":"function","name":"testAddress","inputs":[],"outputs":[],"stateMutability":"nonpayable"},{"type":"function","name":"testBool","inputs":[],"outputs":[],"stateMutability":"nonpayable"},{"type":"function","name":"testBytes","inputs":[],"outputs":[],"stateMutability":"nonpayable"},{"type":"function","name":"testBytes32","inputs":[],"outputs":[],"stateMutability":"nonpayable"},{"type":"function","name":"testInt256","inputs":[],"outputs":[],"stateMutability":"nonpayable"},{"type":"function","name":"testUint256","inputs":[],"outputs":[],"stateMutability":"nonpayable"}],"bytecode":{"object":"0x6080604052348015600f57600080fd5b50600080546001600160a01b031916737109709ecfa91a80626ff3989d68f67f5b1dd12d179055610565806100456000396000f3fe608060405234801561001057600080fd5b50600436106100625760003560e01c80631d18423314610067578063262330b41461007157806336aacafa14610079578063d2aeef3b14610081578063d5aedd3314610089578063de3154a414610091575b600080fd5b61006f610099565b005b61006f61019e565b61006f610208565b61006f610259565b61006f6102a7565b61006f61031f565b6000656d656475736160d01b905060006040518060800160405280604281526020016104c46042913960008054604051631623433d60e31b81526004810186905292935090916001600160a01b039091169063b11a19e8906024015b6000604051808303816000875af1158015610114573d6000803e3d6000fd5b505050506040513d6000823e601f3d908101601f1916820160405261013c91908101906103a9565b90508160405160200161014f919061045e565b6040516020818303038152906040528051906020012081604051602001610176919061045e565b60405160208183030381529060405280519060200120146101995761019961047a565b505050565b6000737109709ecfa91a80626ff3989d68f67f5b1dd12d905060006040518060600160405280602a8152602001610506602a913960008054604051632b65311f60e11b81526001600160a01b038681166004830152939450919216906356ca623e906024016100f5565b6040805180820182526004808252637472756560e01b60208301526000805493516338ee73ed60e11b81526001928101839052919390916001600160a01b03909116906371dce7da906024016100f5565b6040805180820182526005815264313233343560d81b602082015260008054925163348051d760e11b815261303960048201819052936001600160a01b031690636900a3ae906024016100f5565b60408051808201825260068152656d656475736160d01b60208083019190915282518084018452600e81526d307836643635363437353733363160901b918101919091526000805493516371aad10d60e01b81529293919290916001600160a01b0316906371aad10d906100f5908690600401610490565b60408051808201825260068152652d313233343560d01b6020820152600080549251635191620760e11b81526130381960048201819052936001600160a01b03169063a322c40e906024016100f5565b634e487b7160e01b600052604160045260246000fd5b60005b838110156103a0578181015183820152602001610388565b50506000910152565b6000602082840312156103bb57600080fd5b815167ffffffffffffffff8111156103d257600080fd5b8201601f810184136103e357600080fd5b805167ffffffffffffffff8111156103fd576103fd61036f565b604051601f8201601f19908116603f0116810167ffffffffffffffff8111828210171561042c5761042c61036f565b60405281815282820160200186101561044457600080fd5b610455826020830160208601610385565b95945050505050565b60008251610470818460208701610385565b9190910192915050565b634e487b7160e01b600052600160045260246000fd5b60208152600082518060208401526104af816040850160208701610385565b601f01601f1916919091016040019291505056fe307836643635363437353733363130303030303030303030303030303030303030303030303030303030303030303030303030303030303030303030303030303030307837313039373039454366613931613830363236664633393839443638663637463562314444313244a2646970667358221220c840ae76bb292d26a2f61d93a04f5d20079e98a829202ee73408af645e41ceb764736f6c634300081a0033","linkReferences":{}},"methodIdentifiers":{"testAddress()":"262330b4","testBool()":"36aacafa","testBytes()":"d5aedd33","testBytes32()":"1d184233","testInt256()":"de3154a4","testUint256()":"d2aeef3b"},"id":20}