{"abi":[{"type":"function","name":"myArray","inputs":[{"name":"","type":"uint256","internalType":"uint256"}],"outputs":[{"name":"","type":"uint256","internalType":"uint256"}],"stateMutability":"view"},{"type":"function","name":"popEmptyArray","inputs":[],"outputs":[],"stateMutability":"nonpayable"}],"bytecode":{"object":"0x6080604052348015600f57600080fd5b5061010a8061001f6000396000f3fe6080604052348015600f57600080fd5b506004361060325760003560e01c80631233ba4a146037578063cc3e57d914603f575b600080fd5b603d6060565b005b604e604a36600460a6565b6086565b60405190815260200160405180910390f35b6000805480606e57606e60be565b60019003818190600052602060002001600090559055565b60008181548110609557600080fd5b600091825260209091200154905081565b60006020828403121560b757600080fd5b5035919050565b634e487b7160e01b600052603160045260246000fdfea26469706673582212209840bad73b4c224b4cb19d976f1dbb2a5b68554254723eece9d4b396e8f090dd64736f6c634300081a0033","linkReferences":{}},"methodIdentifiers":{"myArray(uint256)":"cc3e57d9","popEmptyArray()":"1233ba4a"},"id":12}