{"abi":[{"type":"function","name":"arithmeticOverflow","inputs":[],"outputs":[],"stateMutability":"nonpayable"}],"bytecode":{"object":"0x6080604052348015600f57600080fd5b5060ab80601d6000396000f3fe6080604052348015600f57600080fd5b506004361060285760003560e01c806369388fd514602d575b600080fd5b60336035565b005b60ff60016000604382846049565b50505050565b60ff8181168382160190811115606f57634e487b7160e01b600052601160045260246000fd5b9291505056fea26469706673582212206ae2101f828452552ab806068f2426cbe6db1ca9384682103ed1d1ded89d06af64736f6c634300081a0033","linkReferences":{}},"methodIdentifiers":{"arithmeticOverflow()":"69388fd5"},"id":2}