{"abi":[{"type":"function","name":"property_never_specific_values","inputs":[],"outputs":[{"name":"","type":"bool","internalType":"bool"}],"stateMutability":"view"},{"type":"function","name":"setX","inputs":[{"name":"value","type":"address","internalType":"address"}],"outputs":[],"stateMutability":"nonpayable"},{"type":"function","name":"setY","inputs":[{"name":"value","type":"address","internalType":"address"}],"outputs":[],"stateMutability":"nonpayable"}],"bytecode":{"object":"0x6080604052348015600f57600080fd5b506101598061001f6000396000f3fe608060405234801561001057600080fd5b50600436106100415760003560e01c80635978a654146100465780637c39cc1614610078578063ee51284e14610094575b600080fd5b6100766100543660046100f3565b600080546001600160a01b0319166001600160a01b0392909216919091179055565b005b6100806100c4565b604051901515815260200160405180910390f35b6100766100a23660046100f3565b600180546001600160a01b0319166001600160a01b0392909216919091179055565b600080546001600160a01b0316620123451480156100ed57506001546001600160a01b03166007145b15905090565b60006020828403121561010557600080fd5b81356001600160a01b038116811461011c57600080fd5b939250505056fea26469706673582212201743771bad8ff10c1a8b0960b812aef1d3c8dbd6b7b4c457207a5c2fb25786ee64736f6c634300081a0033","linkReferences":{}},"methodIdentifiers":{"property_never_specific_values()":"7c39cc16","setX(address)":"5978a654","setY(address)":"ee51284e"},"id":57}