{"abi":[{"type":"constructor","inputs":[],"stateMutability":"nonpayable"},{"type":"function","name":"testAddress","inputs":[],"outputs":[],"stateMutability":"nonpayable"},{"type":"function","name":"testBool","inputs":[],"outputs":[],"stateMutability":"nonpayable"},{"type":"function","name":"testBytes","inputs":[],"outputs":[],"stateMutability":"nonpayable"},{"type":"function","name":"testBytes32","inputs":[],"outputs":[],"stateMutability":"nonpayable"},{"type":"function","name":"testInt256","inputs":[],"outputs":[],"stateMutability":"nonpayable"},{"type":"function","name":"testUint256","inputs":[],"outputs":[],"stateMutability":"nonpayable"}],"bytecode":{"object":"0x6080604052348015600f57600080fd5b50600080546001600160a01b031916737109709ecfa91a80626ff3989d68f67f5b1dd12d179055610620806100456000396000f3fe608060405234801561001057600080fd5b50600436106100625760003560e01c80631d18423314610067578063262330b41461007157806336aacafa14610079578063d2aeef3b14610081578063d5aedd3314610089578063de3154a414610091575b600080fd5b61006f610099565b005b61006f610144565b61006f610214565b61006f6102ba565b61006f610307565b61006f6103ce565b60408051808201825260068152656d656475736160d01b6020820181905260008054935163087e6e8160e01b8152919390916001600160a01b039091169063087e6e81906100eb908590600401610441565b6020604051808303816000875af115801561010a573d6000803e3d6000fd5b505050506040513d601f19601f8201168201806040525081019061012e9190610474565b905080831461013f5761013f61048d565b505050565b6000737109709ecfa91a80626ff3989d68f67f5b1dd12d905060006040518060600160405280602a81526020016105c1602a91396000805460405163c6ce059d60e01b815292935090916001600160a01b039091169063c6ce059d906101ae908590600401610441565b6020604051808303816000875af11580156101cd573d6000803e3d6000fd5b505050506040513d601f19601f820116820180604052508101906101f191906104a3565b9050806001600160a01b0316836001600160a01b03161461013f5761013f61048d565b6040805180820182526004808252637472756560e01b60208301526000805493516325d3be4960e21b815260019491926001600160a01b039092169163974ef9249161026291869101610441565b6020604051808303816000875af1158015610281573d6000803e3d6000fd5b505050506040513d601f19601f820116820180604052508101906102a591906104d3565b90508015158315151461013f5761013f61048d565b6040805180820182526005815264313233343560d81b602082015260008054925163fa91454d60e01b8152613039936001600160a01b03169063fa91454d906100eb908590600401610441565b6040805180820182526006808252656d656475736160d01b602080840182905284518086018652928352820152600080549351638f5d232d60e01b81529293919290916001600160a01b031690638f5d232d90610368908590600401610441565b6000604051808303816000875af1158015610387573d6000803e3d6000fd5b505050506040513d6000823e601f3d908101601f191682016040526103af919081019061050b565b9050808051906020012083805190602001201461013f5761013f61048d565b60408051808201825260068152652d313233343560d01b602082015260008054925163211a362f60e11b815261303819936001600160a01b0316906342346c5e906100eb908590600401610441565b60005b83811015610438578181015183820152602001610420565b50506000910152565b602081526000825180602084015261046081604085016020870161041d565b601f01601f19169190910160400192915050565b60006020828403121561048657600080fd5b5051919050565b634e487b7160e01b600052600160045260246000fd5b6000602082840312156104b557600080fd5b81516001600160a01b03811681146104cc57600080fd5b9392505050565b6000602082840312156104e557600080fd5b815180151581146104cc57600080fd5b634e487b7160e01b600052604160045260246000fd5b60006020828403121561051d57600080fd5b815167ffffffffffffffff81111561053457600080fd5b8201601f8101841361054557600080fd5b805167ffffffffffffffff81111561055f5761055f6104f5565b604051601f8201601f19908116603f0116810167ffffffffffffffff8111828210171561058e5761058e6104f5565b6040528181528282016020018610156105a657600080fd5b6105b782602083016020860161041d565b9594505050505056fe307837313039373039454366613931613830363236664633393839443638663637463562314444313244a26469706673582212200733084c8f226627e0ea076bbd05498780b91b2835b063cf50e858f67258215964736f6c634300081a0033","linkReferences":{}},"methodIdentifiers":{"testAddress()":"262330b4","testBool()":"36aacafa","testBytes()":"d5aedd33","testBytes32()":"1d184233","testInt256()":"de3154a4","testUint256()":"d2aeef3b"},"id":18}