{"abi":[{"type":"function","name":"returnErrorIfSeven","inputs":[{"name":"x","type":"uint256","internalType":"uint256"}],"outputs":[],"stateMutability":"nonpayable"},{"type":"error","name":"CustomError","inputs":[{"name":"message","type":"string","internalType":"string"},{"name":"value","type":"uint256","internalType":"uint256"}]}],"bytecode":{"object":"0x6080604052348015600f57600080fd5b5060ec8061001e6000396000f3fe6080604052348015600f57600080fd5b506004361060285760003560e01c806350bd0dfe14602d575b600080fd5b603c6038366004609e565b603e565b005b80600703609b57604080516322f0eb5d60e11b81526004810191909152601a60448201527f48656c6c6f2066726f6d206120637573746f6d206572726f722100000000000060648201526024810182905260840160405180910390fd5b50565b60006020828403121560af57600080fd5b503591905056fea26469706673582212203b24e9b152d7d5bd4762cf4415491c51dc458cfaf26b0a7d519b4b427ee5885764736f6c634300081a0033","linkReferences":{}},"methodIdentifiers":{"returnErrorIfSeven(uint256)":"50bd0dfe"},"id":49}