{"abi":[{"type":"constructor","inputs":[],"stateMutability":"nonpayable"},{"type":"function","name":"errorAndAssertFailIfSeven","inputs":[{"name":"value","type":"uint256","internalType":"uint256"}],"outputs":[],"stateMutability":"nonpayable"}],"bytecode":{"object":"0x6080604052348015600f57600080fd5b50604051601a90605a565b604051809103906000f0801580156035573d6000803e3d6000fd5b50600080546001600160a01b0319166001600160a01b03929092169190911790556067565b61010a806102c783390190565b610251806100766000396000f3fe608060405234801561001057600080fd5b506004361061002b5760003560e01c806320fc54a714610030575b600080fd5b61004361003e366004610110565b610045565b005b60005460405163285e86ff60e11b8152600481018390526001600160a01b03909116906350bd0dfe90602401600060405180830381600087803b15801561008b57600080fd5b505af192505050801561009c575060015b61010d576100a8610129565b806308c379a0036100d357506100bc610180565b806100c757506100d5565b6100cf610205565b5050565b505b3d8080156100ff576040519150601f19603f3d011682016040523d82523d6000602084013e610104565b606091505b506100cf610205565b50565b60006020828403121561012257600080fd5b5035919050565b600060033d11156101425760046000803e5060005160e01c5b90565b601f8201601f1916810167ffffffffffffffff8111828210171561017957634e487b7160e01b600052604160045260246000fd5b6040525050565b600060443d101561018e5790565b6040513d600319016004823e80513d602482011167ffffffffffffffff821117156101b857505090565b808201805167ffffffffffffffff8111156101d4575050505090565b3d84016003190182820160200111156101ee575050505090565b6101fd60208285010185610145565b509392505050565b634e487b7160e01b600052600160045260246000fdfea264697066735822122095327d49200fc0931f99394b37f80279d31e4e6d3a1cf8fb2bf9aca0de27731c64736f6c634300081a00336080604052348015600f57600080fd5b5060ec8061001e6000396000f3fe6080604052348015600f57600080fd5b506004361060285760003560e01c806350bd0dfe14602d575b600080fd5b603c6038366004609e565b603e565b005b80600703609b57604080516322f0eb5d60e11b81526004810191909152601a60448201527f48656c6c6f2066726f6d206120637573746f6d206572726f722100000000000060648201526024810182905260840160405180910390fd5b50565b60006020828403121560af57600080fd5b503591905056fea26469706673582212203b24e9b152d7d5bd4762cf4415491c51dc458cfaf26b0a7d519b4b427ee5885764736f6c634300081a0033","linkReferences":{}},"methodIdentifiers":{"errorAndAssertFailIfSeven(uint256)":"20fc54a7"},"id":49}