{"abi":[{"type":"constructor","inputs":[],"stateMutability":"nonpayable"},{"type":"function","name":"testABIDecode","inputs":[],"outputs":[],"stateMutability":"nonpayable"},{"type":"function","name":"testUTF8","inputs":[],"outputs":[],"stateMutability":"nonpayable"}],"bytecode":{"object":"0x6080604052348015600f57600080fd5b50600080546001600160a01b031916737109709ecfa91a80626ff3989d68f67f5b1dd12d179055610657806100456000396000f3fe608060405234801561001057600080fd5b50600436106100365760003560e01c80632fbc96a51461003b57806390ef1b6c14610045575b600080fd5b61004361004d565b005b61004361020d565b60408051600380825260808201909252600091816020015b6060815260200190600190039081610065579050509050604051806040016040528060048152602001636563686f60e01b815250816000815181106100ac576100ac6103aa565b60200260200101819052506040518060400160405280600281526020016116b760f11b815250816001815181106100e5576100e56103aa565b60200260200101819052506040518060400160405280600581526020016468656c6c6f60d81b81525081600281518110610121576101216103aa565b602090810291909101015260008054604051638916046760e01b81526001600160a01b039091169063891604679061015d9085906004016103e4565b6000604051808303816000875af115801561017c573d6000803e3d6000fd5b505050506040513d6000823e601f3d908101601f191682016040526101a491908101906104dc565b6040516468656c6c6f60d81b602082015290915081906025015b60405160208183030381529060405280519060200120816040516020016101e5919061052d565b604051602081830303815290604052805190602001201461020857610208610549565b505050565b60408051600380825260808201909252600091816020015b6060815260200190600190039081610225579050509050604051806040016040528060048152602001636563686f60e01b8152508160008151811061026c5761026c6103aa565b60200260200101819052506040518060400160405280600281526020016116b760f11b815250816001815181106102a5576102a56103aa565b602002602001018190525060405180610100016040528060c2815260200161056060c29139816002815181106102dd576102dd6103aa565b602090810291909101015260008054604051638916046760e01b81526001600160a01b03909116906389160467906103199085906004016103e4565b6000604051808303816000875af1158015610338573d6000803e3d6000fd5b505050506040513d6000823e601f3d908101601f1916820160405261036091908101906104dc565b905060008180602001905181019061037891906104dc565b6040516468656c6c6f60d81b60208201529091506025016101be565b634e487b7160e01b600052604160045260246000fd5b634e487b7160e01b600052603260045260246000fd5b60005b838110156103db5781810151838201526020016103c3565b50506000910152565b6000602082016020835280845180835260408501915060408160051b86010192506020860160005b8281101561045857603f19878603018452815180518087526104358160208901602085016103c0565b601f01601f1916959095016020908101955093840193919091019060010161040c565b50929695505050505050565b60008067ffffffffffffffff84111561047f5761047f610394565b50604051601f19601f85018116603f0116810181811067ffffffffffffffff821117156104ae576104ae610394565b6040528381529050808284018510156104c657600080fd5b6104d48460208301856103c0565b509392505050565b6000602082840312156104ee57600080fd5b815167ffffffffffffffff81111561050557600080fd5b8201601f8101841361051657600080fd5b61052584825160208401610464565b949350505050565b6000825161053f8184602087016103c0565b9190910192915050565b634e487b7160e01b600052600160045260246000fdfe3078303030303030303030303030303030303030303030303030303030303030303030303030303030303030303030303030303030303030303030303030303032303030303030303030303030303030303030303030303030303030303030303030303030303030303030303030303030303030303030303030303030303030303536383635364336433646303030303030303030303030303030303030303030303030303030303030303030303030303030303030303030303030303030303030a26469706673582212208c5f27cf9c396a5c102a49909e4f84d76eab7945220ed8d038d22055432dd9c064736f6c634300081a0033","linkReferences":{}},"methodIdentifiers":{"testABIDecode()":"90ef1b6c","testUTF8()":"2fbc96a5"},"id":16}