{"abi":[{"type":"constructor","inputs":[],"stateMutability":"nonpayable"},{"type":"function","name":"property_increase_block_timestamp","inputs":[],"outputs":[{"name":"","type":"bool","internalType":"bool"}],"stateMutability":"view"},{"type":"function","name":"waitTimestamp","inputs":[],"outputs":[],"stateMutability":"nonpayable"}],"bytecode":{"object":"0x6080604052348015600f57600080fd5b504260005560c58060216000396000f3fe6080604052348015600f57600080fd5b506004361060325760003560e01c8063a80319bd146037578063c72f524a146039575b600080fd5b005b603f6053565b604051901515815260200160405180910390f35b6000600a60005442606391906069565b10919050565b81810381811115608957634e487b7160e01b600052601160045260246000fd5b9291505056fea2646970667358221220320ee4373967cd5cef2717f283a9901bb4f85cdfb2faf078ce07e57b6ef2392064736f6c634300081a0033","linkReferences":{}},"methodIdentifiers":{"property_increase_block_timestamp()":"c72f524a","waitTimestamp()":"a80319bd"},"id":66}