{"abi":[{"type":"function","name":"test","inputs":[{"name":"x","type":"uint64","internalType":"uint64"}],"outputs":[],"stateMutability":"nonpayable"}],"bytecode":{"object":"0x6080604052348015600f57600080fd5b506102dc8061001f6000396000f3fe608060405234801561001057600080fd5b506004361061002b5760003560e01c8063b0e0b9ed14610030575b600080fd5b61004361003e36600461022b565b610045565b005b6040516372eb5f8160e11b815267ffffffffffffffff82166004820152737109709ecfa91a80626ff3989d68f67f5b1dd12d90819063e5d6bf0290602401600060405180830381600087803b15801561009d57600080fd5b505af11580156100b1573d6000803e3d6000fd5b505050508167ffffffffffffffff1642146100ce576100ce61025c565b6040516372eb5f8160e11b8152600760048201526001600160a01b0382169063e5d6bf0290602401600060405180830381600087803b15801561011057600080fd5b505af1158015610124573d6000803e3d6000fd5b50505050426007146101385761013861025c565b6040516372eb5f8160e11b8152600960048201526001600160a01b0382169063e5d6bf0290602401600060405180830381600087803b15801561017a57600080fd5b505af115801561018e573d6000803e3d6000fd5b50505050426009146101a2576101a261025c565b6001600160a01b03811663e5d6bf026101c467ffffffffffffffff6001610272565b6040516001600160e01b031960e084901b16815267ffffffffffffffff9091166004820152602401600060405180830381600087803b15801561020657600080fd5b505af1925050508015610217575060015b61021f575050565b61022761025c565b5050565b60006020828403121561023d57600080fd5b813567ffffffffffffffff8116811461025557600080fd5b9392505050565b634e487b7160e01b600052600160045260246000fd5b67ffffffffffffffff81811683821601908111156102a057634e487b7160e01b600052601160045260246000fd5b9291505056fea2646970667358221220822af685491266c0c1c84c962acac1acae65600b08de73d60ca84bbcbc8eb82d64736f6c634300081a0033","linkReferences":{}},"methodIdentifiers":{"test(uint64)":"b0e0b9ed"},"id":32}