{"abi":[{"type":"function","name":"property_never_specific_values","inputs":[],"outputs":[{"name":"","type":"bool","internalType":"bool"}],"stateMutability":"view"},{"type":"function","name":"setAddr","inputs":[{"name":"value","type":"address","internalType":"address"}],"outputs":[],"stateMutability":"nonpayable"}],"bytecode":{"object":"0x6080604052348015600f57600080fd5b5060f28061001e6000396000f3fe6080604052348015600f57600080fd5b506004361060325760003560e01c80637c39cc16146037578063d1d80fdf14605f575b600080fd5b604b6000546001600160a01b031630141590565b604051901515815260200160405180910390f35b608c606a366004608e565b600080546001600160a01b0319166001600160a01b0392909216919091179055565b005b600060208284031215609f57600080fd5b81356001600160a01b038116811460b557600080fd5b939250505056fea264697066735822122038a375d1ab61be868ca8977e6ca8a8beeb6a266bd0f00c4b88d5aff7c187318464736f6c634300081a0033","linkReferences":{}},"methodIdentifiers":{"property_never_specific_values()":"7c39cc16","setAddr(address)":"d1d80fdf"},"id":56}