{"abi":[{"type":"function","name":"revertIfSeven","inputs":[{"name":"x","type":"uint256","internalType":"uint256"}],"outputs":[],"stateMutability":"nonpayable"}],"bytecode":{"object":"0x6080604052348015600f57600080fd5b5060f58061001e6000396000f3fe6080604052348015600f57600080fd5b506004361060285760003560e01c8063f7d5ee7314602d575b600080fd5b603c603836600460a7565b603e565b005b8060070360a45760405162461bcd60e51b815260206004820152602a60248201527f526576657274696e67436f6e7472616374207761732063616c6c656420616e64604482015269103932bb32b93a32b21760b11b606482015260840160405180910390fd5b50565b60006020828403121560b857600080fd5b503591905056fea2646970667358221220e59fa696c836c46436473c9811c8c791ad9ac27e09fde818c2159cef08fc731664736f6c634300081a0033","linkReferences":{}},"methodIdentifiers":{"revertIfSeven(uint256)":"f7d5ee73"},"id":50}