{"abi":[{"type":"constructor","inputs":[],"stateMutability":"nonpayable"},{"type":"function","name":"assertIfRevertEncountered","inputs":[{"name":"value","type":"uint256","internalType":"uint256"}],"outputs":[],"stateMutability":"nonpayable"}],"bytecode":{"object":"0x6080604052348015600f57600080fd5b50604051601a90605a565b604051809103906000f0801580156035573d6000803e3d6000fd5b50600080546001600160a01b0319166001600160a01b03929092169190911790556067565b6101138061029983390190565b610223806100766000396000f3fe608060405234801561001057600080fd5b506004361061002b5760003560e01c8063fb212f0b14610030575b600080fd5b61004361003e3660046100e2565b610045565b005b60005460405163f7d5ee7360e01b8152600481018390526001600160a01b039091169063f7d5ee7390602401600060405180830381600087803b15801561008b57600080fd5b505af192505050801561009c575060015b6100df576100a86100fb565b806308c379a0036100d357506100bc610152565b806100c757506100d5565b6100cf6101d7565b5050565b505b3d6000803e3d6000fd5b50565b6000602082840312156100f457600080fd5b5035919050565b600060033d11156101145760046000803e5060005160e01c5b90565b601f8201601f1916810167ffffffffffffffff8111828210171561014b57634e487b7160e01b600052604160045260246000fd5b6040525050565b600060443d10156101605790565b6040513d600319016004823e80513d602482011167ffffffffffffffff8211171561018a57505090565b808201805167ffffffffffffffff8111156101a6575050505090565b3d84016003190182820160200111156101c0575050505090565b6101cf60208285010185610117565b509392505050565b634e487b7160e01b600052600160045260246000fdfea26469706673582212207f35b44858056029622e2d516448095a7df52d8f460d65bb57d180baf6599ae064736f6c634300081a00336080604052348015600f57600080fd5b5060f58061001e6000396000f3fe6080604052348015600f57600080fd5b506004361060285760003560e01c8063f7d5ee7314602d575b600080fd5b603c603836600460a7565b603e565b005b8060070360a45760405162461bcd60e51b815260206004820152602a60248201527f526576657274696e67436f6e7472616374207761732063616c6c656420616e64604482015269103932bb32b93a32b21760b11b606482015260840160405180910390fd5b50565b60006020828403121560b857600080fd5b503591905056fea2646970667358221220e59fa696c836c46436473c9811c8c791ad9ac27e09fde818c2159cef08fc731664736f6c634300081a0033","linkReferences":{}},"methodIdentifiers":{"assertIfRevertEncountered(uint256)":"fb212f0b"},"id":50}