{"abi":[{"type":"function","name":"property_never_specific_values","inputs":[],"outputs":[{"name":"","type":"bool","internalType":"bool"}],"stateMutability":"view"},{"type":"function","name":"setX","inputs":[{"name":"value","type":"int256","internalType":"int256"}],"outputs":[],"stateMutability":"nonpayable"},{"type":"function","name":"setY","inputs":[{"name":"value","type":"int256","internalType":"int256"}],"outputs":[],"stateMutability":"nonpayable"}],"bytecode":{"object":"0x6080604052348015600f57600080fd5b5061014e8061001f6000396000f3fe608060405234801561001057600080fd5b50600436106100415760003560e01c80632c245c03146100465780637c39cc161461005b578063a0fc499414610077575b600080fd5b6100596100543660046100c9565b61008a565b005b61006361009b565b604051901515815260200160405180910390f35b6100596100853660046100c9565b6100b8565b6100958160096100e2565b60015550565b600080546009191480156100b25750600154603d19145b15905090565b6100c38160036100e2565b60005550565b6000602082840312156100db57600080fd5b5035919050565b808201828112600083128015821682158216171561011057634e487b7160e01b600052601160045260246000fd5b50509291505056fea2646970667358221220dc5c9bfbfe0b7e1a2814d62027eb67b3b6ee76c4293eb28d60ff8e2ede52cceb64736f6c634300081a0033","linkReferences":{}},"methodIdentifiers":{"property_never_specific_values()":"7c39cc16","setX(int256)":"a0fc4994","setY(int256)":"2c245c03"},"id":59}