{"abi":[{"type":"function","name":"setX","inputs":[{"name":"value","type":"uint256","internalType":"uint256"}],"outputs":[],"stateMutability":"nonpayable"}],"bytecode":{"object":"0x6080604052348015600f57600080fd5b5060c180601d6000396000f3fe6080604052348015600f57600080fd5b506004361060285760003560e01c80634018d9aa14602d575b600080fd5b603c6038366004604d565b603e565b005b60478160036065565b60005550565b600060208284031215605e57600080fd5b5035919050565b80820180821115608557634e487b7160e01b600052601160045260246000fd5b9291505056fea26469706673582212201b1fd0173e050dcae2f9c14f29163f12c3f16e1d80b35d7d58c504510a06440b64736f6c634300081a0033","linkReferences":{}},"methodIdentifiers":{"setX(uint256)":"4018d9aa"},"id":35}