{"abi":[{"type":"function","name":"property_never_specific_values","inputs":[],"outputs":[{"name":"","type":"bool","internalType":"bool"}],"stateMutability":"view"},{"type":"function","name":"setA","inputs":[{"name":"value","type":"uint256","internalType":"uint256"}],"outputs":[],"stateMutability":"nonpayable"},{"type":"function","name":"setB","inputs":[{"name":"value","type":"uint256","internalType":"uint256"}],"outputs":[],"stateMutability":"nonpayable"},{"type":"function","name":"setC","inputs":[{"name":"value","type":"uint256","internalType":"uint256"}],"outputs":[],"stateMutability":"nonpayable"}],"bytecode":{"object":"0x6080604052348015600f57600080fd5b5061017a8061001f6000396000f3fe608060405234801561001057600080fd5b506004361061004c5760003560e01c806309cdcf9b146100515780637c39cc1614610066578063ee919d5014610082578063eeb4914e14610095575b600080fd5b61006461005f366004610104565b6100a8565b005b61006e6100b9565b604051901515815260200160405180910390f35b610064610090366004610104565b6100e2565b6100646100a3366004610104565b6100f3565b6100b381600961011d565b60015550565b60008054600a1480156100ce57506001546050145b80156100dc5750600254600e145b15905090565b6100ed81600361011d565b60005550565b6100fe81600761011d565b60025550565b60006020828403121561011657600080fd5b5035919050565b8082018082111561013e57634e487b7160e01b600052601160045260246000fd5b9291505056fea2646970667358221220131266da83b948fcc8f958696fb939e083050ac5273e60b16a6b888c6bb6b4fc64736f6c634300081a0033","linkReferences":{}},"methodIdentifiers":{"property_never_specific_values()":"7c39cc16","setA(uint256)":"ee919d50","setB(uint256)":"09cdcf9b","setC(uint256)":"eeb4914e"},"id":35}