{"abi":[{"type":"function","name":"setA","inputs":[{"name":"value","type":"uint256","internalType":"uint256"}],"outputs":[],"stateMutability":"nonpayable"},{"type":"function","name":"setB","inputs":[{"name":"value","type":"uint256","internalType":"uint256"}],"outputs":[],"stateMutability":"nonpayable"}],"bytecode":{"object":"0x6080604052348015600f57600080fd5b5060e98061001e6000396000f3fe6080604052348015600f57600080fd5b506004361060325760003560e01c806309cdcf9b146037578063ee919d50146048575b600080fd5b604660423660046075565b6057565b005b604660533660046075565b6066565b6060816009608d565b60015550565b606f816003608d565b60005550565b600060208284031215608657600080fd5b5035919050565b8082018082111560ad57634e487b7160e01b600052601160045260246000fd5b9291505056fea2646970667358221220624da3c086ebbd61974d8ad4a53181006f5a33bd355f7c109c956087cd57fbc064736f6c634300081a0033","linkReferences":{}},"methodIdentifiers":{"setA(uint256)":"ee919d50","setB(uint256)":"09cdcf9b"},"id":35}