{"abi":[{"type":"function","name":"outOfBoundsArrayAccess","inputs":[],"outputs":[],"stateMutability":"nonpayable"}],"bytecode":{"object":"0x6080604052348015600f57600080fd5b5060bc80601d6000396000f3fe6080604052348015600f57600080fd5b506004361060285760003560e01c80631dc20cc614602d575b600080fd5b60336035565b005b60408051600580825260c082019092526000916020820160a080368337019050509050600081600681518110606a57606a6070565b50505050565b634e487b7160e01b600052603260045260246000fdfea2646970667358221220213c2c9c2a8a3b3e31f93278f4d9958e9f36dd2f29ef602b659bf1eae53902e364736f6c634300081a0033","linkReferences":{}},"methodIdentifiers":{"outOfBoundsArrayAccess()":"1dc20cc6"},"id":11}