{"abi":[{"type":"function","name":"test","inputs":[{"name":"x","type":"uint256","internalType":"uint256"}],"outputs":[],"stateMutability":"nonpayable"}],"bytecode":{"object":"0x6080604052348015600f57600080fd5b506101c38061001f6000396000f3fe608060405234801561001057600080fd5b506004361061002b5760003560e01c806329e99f0714610030575b600080fd5b61004361003e36600461015e565b610045565b005b60405163c88a5e6d60e01b81526103096004820181905260248201839052737109709ecfa91a80626ff3989d68f67f5b1dd12d91829063c88a5e6d90604401600060405180830381600087803b15801561009e57600080fd5b505af11580156100b2573d6000803e3d6000fd5b5050505082816001600160a01b031631146100cf576100cf610177565b60405163c88a5e6d60e01b81526001600160a01b038281166004830152676124fee993bc0000602483015283169063c88a5e6d90604401600060405180830381600087803b15801561012057600080fd5b505af1158015610134573d6000803e3d6000fd5b50505050806001600160a01b031631676124fee993bc00001461015957610159610177565b505050565b60006020828403121561017057600080fd5b5035919050565b634e487b7160e01b600052600160045260246000fdfea26469706673582212208e335d39645c6dbd8c0f8d08c127294a659d7e1841801663b6a18ea3e1811cb464736f6c634300081a0033","linkReferences":{}},"methodIdentifiers":{"test(uint256)":"29e99f07"},"id":23}