{"abi":[{"type":"function","name":"setXY","inputs":[{"name":"_x","type":"uint256","internalType":"uint256"},{"name":"_y","type":"uint256","internalType":"uint256"},{"name":"s","type":"string","internalType":"string"}],"outputs":[],"stateMutability":"payable"}],"bytecode":{"object":"0x6080604052348015600f57600080fd5b506101578061001f6000396000f3fe60806040526004361061001e5760003560e01c80632de8098d14610023575b600080fd5b61003d610031366004610055565b50600091909155600155565b005b634e487b7160e01b600052604160045260246000fd5b60008060006060848603121561006a57600080fd5b8335925060208401359150604084013567ffffffffffffffff81111561008f57600080fd5b8401601f810186136100a057600080fd5b803567ffffffffffffffff8111156100ba576100ba61003f565b604051601f8201601f19908116603f0116810167ffffffffffffffff811182821017156100e9576100e961003f565b60405281815282820160200188101561010157600080fd5b81602084016020830137600060208383010152809350505050925092509256fea2646970667358221220ea635c03b100f7d3387bc213b7a664c0ffff29b84a4334352c4c87b95203389d64736f6c634300081a0033","linkReferences":{}},"methodIdentifiers":{"setXY(uint256,uint256,string)":"2de8098d"},"id":48}