{"abi":[{"type":"constructor","inputs":[],"stateMutability":"nonpayable"},{"type":"function","name":"testDelegateCall","inputs":[],"outputs":[],"stateMutability":"nonpayable"}],"bytecode":{"object":"0x6080604052348015600f57600080fd5b50604051601a90605a565b604051809103906000f0801580156035573d6000803e3d6000fd5b50600280546001600160a01b0319166001600160a01b03929092169190911790556067565b6101768061022883390190565b6101b2806100766000396000f3fe608060405234801561001057600080fd5b506004361061002b5760003560e01c8063e1e3634114610030575b600080fd5b61003861003a565b005b600254604051607b6024820152610141604482015260606064820152601b60848201527f48656c6c6f2066726f6d2070726f78792063616c6c206172677321000000000060a482015260009182916001600160a01b039091169060c40160408051601f198184030181529181526020820180516001600160e01b0316632de8098d60e01b179052516100cc9190610137565b600060405180830381855af49150503d8060008114610107576040519150601f19603f3d011682016040523d82523d6000602084013e61010c565b606091505b5091509150600054607b1480156101265750600154610141145b1561013357610133610166565b5050565b6000825160005b81811015610158576020818601810151858301520161013e565b506000920191825250919050565b634e487b7160e01b600052600160045260246000fdfea2646970667358221220dd52f739d2333366b8712530668bf63292e544fe83b2d966da630df54202803164736f6c634300081a00336080604052348015600f57600080fd5b506101578061001f6000396000f3fe60806040526004361061001e5760003560e01c80632de8098d14610023575b600080fd5b61003d610031366004610055565b50600091909155600155565b005b634e487b7160e01b600052604160045260246000fd5b60008060006060848603121561006a57600080fd5b8335925060208401359150604084013567ffffffffffffffff81111561008f57600080fd5b8401601f810186136100a057600080fd5b803567ffffffffffffffff8111156100ba576100ba61003f565b604051601f8201601f19908116603f0116810167ffffffffffffffff811182821017156100e9576100e961003f565b60405281815282820160200188101561010157600080fd5b81602084016020830137600060208383010152809350505050925092509256fea2646970667358221220ea635c03b100f7d3387bc213b7a664c0ffff29b84a4334352c4c87b95203389d64736f6c634300081a0033","linkReferences":{}},"methodIdentifiers":{"testDelegateCall()":"e1e36341"},"id":48}