{"abi":[{"type":"function","name":"p1","inputs":[],"outputs":[],"stateMutability":"payable"},{"type":"function","name":"p2","inputs":[],"outputs":[],"stateMutability":"payable"},{"type":"function","name":"property_never_pay_exact_amounts","inputs":[],"outputs":[{"name":"","type":"bool","internalType":"bool"}],"stateMutability":"view"}],"bytecode":{"object":"0x6080604052348015600f57600080fd5b5060bf80601d6000396000f3fe60806040526004361060305760003560e01c806354dbfa5714603557806381d01ed314605b578063c2a2747b146065575b600080fd5b348015604057600080fd5b506047606d565b604051901515815260200160405180910390f35b606334600155565b005b606334600055565b60008054611e61148015608357506001546122b8145b1590509056fea26469706673582212201bbf9dd3de680328eed57a0b6fdaa45ca057ff6e0d66a3367a05ab7303dd9aef64736f6c634300081a0033","linkReferences":{}},"methodIdentifiers":{"p1()":"c2a2747b","p2()":"81d01ed3","property_never_pay_exact_amounts()":"54dbfa57"},"id":60}