{"abi":[{"type":"function","name":"uninitializedVariableCall","inputs":[],"outputs":[{"name":"","type":"int256","internalType":"int256"}],"stateMutability":"nonpayable"}],"bytecode":{"object":"0x6080604052348015600f57600080fd5b5060b280601d6000396000f3fe6080604052348015600f57600080fd5b506004361060285760003560e01c8063098b8a4a14602d575b600080fd5b60336045565b60405190815260200160405180910390f35b6000605e6058600460058363ffffffff16565b91505090565b60646066565b565b634e487b7160e01b600052605160045260246000fdfea2646970667358221220e9966519206b90c700d50a1eabe1d663cbd16d7096ce098b72da4afbdb5d9ea364736f6c634300081a0033","linkReferences":{}},"methodIdentifiers":{"uninitializedVariableCall()":"098b8a4a"},"id":3}