{"abi":[{"type":"function","name":"property_never_apply_state_when_oog","inputs":[],"outputs":[{"name":"","type":"bool","internalType":"bool"}],"stateMutability":"view"},{"type":"function","name":"useAllGas","inputs":[],"outputs":[],"stateMutability":"nonpayable"}],"bytecode":{"object":"0x6080604052348015600f57600080fd5b5060f78061001e6000396000f3fe6080604052348015600f57600080fd5b506004361060325760003560e01c80638c29f8d4146037578063d33403ef14603f575b600080fd5b603d6055565b005b6000546040805191158252519081900360200190f35b60005b600081905560668160026091565b5060008190558060748160ab565b9150506058565b634e487b7160e01b600052601160045260246000fd5b808202811582820484141760a55760a5607b565b92915050565b60006001820160ba5760ba607b565b506001019056fea2646970667358221220b1cd1276a1432f20c32a853ea8afdee0fa64b88d68760abcc52dacb569ea30a864736f6c634300081a0033","linkReferences":{}},"methodIdentifiers":{"property_never_apply_state_when_oog()":"d33403ef","useAllGas()":"8c29f8d4"},"id":13}