{"abi":[{"type":"function","name":"allocateTooMuchMemory","inputs":[],"outputs":[],"stateMutability":"nonpayable"}],"bytecode":{"object":"0x6080604052348015600f57600080fd5b5060fc8061001e6000396000f3fe6080604052348015600f57600080fd5b506004361060285760003560e01c80633b4bd1b614602d575b600080fd5b60336035565b005b6000680100000000000000006047609a565b604051908082528060200260200182016040528015606f578160200160208202803683370190505b509050602a8167ffffffffffffffff81518110608b57608b60b0565b60200260200101818152505050565b634e487b7160e01b600052604160045260246000fd5b634e487b7160e01b600052603260045260246000fdfea2646970667358221220d98cf6474ddcada9d5efd399cfd8603ef748c241101da8dc2feb0e3bfb416be064736f6c634300081a0033","linkReferences":{}},"methodIdentifiers":{"allocateTooMuchMemory()":"3b4bd1b6"},"id":0}