{"abi":[{"type":"function","name":"enumTypeConversionOutOfBounds","inputs":[],"outputs":[],"stateMutability":"nonpayable"}],"bytecode":{"object":"0x6080604052348015600f57600080fd5b50609180601d6000396000f3fe6080604052348015600f57600080fd5b506004361060285760003560e01c8063582cc1c914602d575b600080fd5b60336035565b005b600460008160406045565b505050565b634e487b7160e01b600052602160045260246000fdfea2646970667358221220663887e39006531839dc9cb516f3b5516f47e467b83d4fa4b16082a64f268f0764736f6c634300081a0033","linkReferences":{}},"methodIdentifiers":{"enumTypeConversionOutOfBounds()":"582cc1c9"},"id":6}