{"abi":[{"type":"function","name":"test","inputs":[{"name":"x","type":"uint64","internalType":"uint64"}],"outputs":[],"stateMutability":"nonpayable"}],"bytecode":{"object":"0x6080604052348015600f57600080fd5b506102de8061001f6000396000f3fe608060405234801561001057600080fd5b506004361061002b5760003560e01c8063b0e0b9ed14610030575b600080fd5b61004361003e366004610251565b610045565b005b60405163f8e18b5760e01b8152336004820181905267ffffffffffffffff83166024830152737109709ecfa91a80626ff3989d68f67f5b1dd12d91829063f8e18b5790604401600060405180830381600087803b1580156100a557600080fd5b505af11580156100b9573d6000803e3d6000fd5b5050604051632d0335ab60e01b81526001600160a01b03848116600483015267ffffffffffffffff8716935085169150632d0335ab906024016020604051808303816000875af1158015610111573d6000803e3d6000fd5b505050506040513d601f19601f820116820180604052508101906101359190610275565b67ffffffffffffffff161461014c5761014c610292565b60405163f8e18b5760e01b81526001600160a01b0382811660048301526007602483015283169063f8e18b5790604401600060405180830381600087803b15801561019657600080fd5b505af11580156101aa573d6000803e3d6000fd5b5050604051632d0335ab60e01b81526001600160a01b03848116600483015285169250632d0335ab91506024016020604051808303816000875af11580156101f6573d6000803e3d6000fd5b505050506040513d601f19601f8201168201806040525081019061021a9190610275565b67ffffffffffffffff1660071461023357610233610292565b505050565b67ffffffffffffffff8116811461024e57600080fd5b50565b60006020828403121561026357600080fd5b813561026e81610238565b9392505050565b60006020828403121561028757600080fd5b815161026e81610238565b634e487b7160e01b600052600160045260246000fdfea2646970667358221220d16cb0c043eec16473f62172ca83676c0fc06f065d7337877fdeada08ed6bf2e64736f6c634300081a0033","linkReferences":{}},"methodIdentifiers":{"test(uint64)":"b0e0b9ed"},"id":27}