{"abi":[{"type":"function","name":"property_never_specific_values","inputs":[],"outputs":[{"name":"","type":"bool","internalType":"bool"}],"stateMutability":"view"},{"type":"function","name":"setAddr","inputs":[{"name":"value","type":"address","internalType":"address"}],"outputs":[],"stateMutability":"nonpayable"}],"bytecode":{"object":"0x6080604052348015600f57600080fd5b5060fc8061001e6000396000f3fe6080604052348015600f57600080fd5b506004361060325760003560e01c80637c39cc16146037578063d1d80fdf146060575b600080fd5b6001546000546001600160a01b0391821691161415604051901515815260200160405180910390f35b6096606b3660046098565b600080546001600160a01b039092166001600160a01b03199283161790556001805490911633179055565b005b60006020828403121560a957600080fd5b81356001600160a01b038116811460bf57600080fd5b939250505056fea2646970667358221220db8b3acc44561a8c93cf4bb70994dd85254fccbbfaf90e7f698c425bdd3b538e64736f6c634300081a0033","linkReferences":{}},"methodIdentifiers":{"property_never_specific_values()":"7c39cc16","setAddr(address)":"d1d80fdf"},"id":58}