{"abi":[{"type":"function","name":"property_violate_block_hash_continuity","inputs":[],"outputs":[{"name":"","type":"bool","internalType":"bool"}],"stateMutability":"view"},{"type":"function","name":"updateBlockHashes","inputs":[],"outputs":[],"stateMutability":"nonpayable"}],"bytecode":{"object":"0x6080604052348015600f57600080fd5b506102468061001f6000396000f3fe608060405234801561001057600080fd5b50600436106100365760003560e01c806319ebbd401461003b578063842dffc514610045575b600080fd5b610043610060565b005b60025460ff1615604051901515815260200160405180910390f35b4340801561007857506002805460ff19166001179055565b60006100854360016101cb565b409050801561009f5750506002805460ff19166001179055565b60015b600a81111580156100b35750438111155b156101ac5760006100c482436101e4565b409050600182111561014957600354158015906100e357504360035414155b1561014957600160006100f684436101e4565b815260208101919091526040016000205460ff16801561013157508060008061011f85436101e4565b81526020019081526020016000205414155b156101495750506002805460ff191660011790555050565b8060008061015785436101e4565b8152602001908152602001600020819055506001806000844361017a91906101e4565b81526020810191909152604001600020805460ff191691151591909117905550806101a4816101f7565b9150506100a2565b50504360035550565b634e487b7160e01b600052601160045260246000fd5b808201808211156101de576101de6101b5565b92915050565b818103818111156101de576101de6101b5565b600060018201610209576102096101b5565b506001019056fea26469706673582212205f45b9e51f7a5fd70f90cecc3d0937ae6a6f24212896c6aa608b484e3b5677fa64736f6c634300081a0033","linkReferences":{}},"methodIdentifiers":{"property_violate_block_hash_continuity()":"842dffc5","updateBlockHashes()":"19ebbd40"},"id":64}