{"abi":[{"type":"function","name":"property_inner_inner_deployment","inputs":[],"outputs":[{"name":"","type":"bool","internalType":"bool"}],"stateMutability":"view"}],"bytecode":{"object":"0x6080604052348015600f57600080fd5b50607780601d6000396000f3fe6080604052348015600f57600080fd5b506004361060285760003560e01c806378adf3eb14602d575b600080fd5b604080516000815290519081900360200190f3fea2646970667358221220cb869dc60b398aad4408b33fa24bf252fc72cd671d947e6271d38999a096249f64736f6c634300081a0033","linkReferences":{}},"methodIdentifiers":{"property_inner_inner_deployment()":"78adf3eb"},"id":39}