{"abi":[{"type":"function","name":"deployInnerInner","inputs":[],"outputs":[{"name":"","type":"address","internalType":"address"}],"stateMutability":"nonpayable"}],"bytecode":{"object":"0x6080604052348015600f57600080fd5b506101528061001f6000396000f3fe6080604052348015600f57600080fd5b506004361060285760003560e01c8063f8d797c814602d575b600080fd5b6033604f565b6040516001600160a01b03909116815260200160405180910390f35b6000604051605b90607c565b604051809103906000f0801580156076573d6000803e3d6000fd5b50905090565b6094806100898339019056fe6080604052348015600f57600080fd5b50607780601d6000396000f3fe6080604052348015600f57600080fd5b506004361060285760003560e01c806378adf3eb14602d575b600080fd5b604080516000815290519081900360200190f3fea2646970667358221220cb869dc60b398aad4408b33fa24bf252fc72cd671d947e6271d38999a096249f64736f6c634300081a0033a2646970667358221220da5815f3d7eaf702dbf9aa89e59ed1268f7410d44e2c30365cf117b000ea439e64736f6c634300081a0033","linkReferences":{}},"methodIdentifiers":{"deployInnerInner()":"f8d797c8"},"id":39}