{"abi":[{"type":"function","name":"test","inputs":[{"name":"x","type":"uint256","internalType":"uint256"}],"outputs":[],"stateMutability":"nonpayable"}],"bytecode":{"object":"0x6080604052348015600f57600080fd5b5061018e8061001f6000396000f3fe608060405234801561001057600080fd5b506004361061002b5760003560e01c806329e99f0714610030575b600080fd5b61004361003e366004610129565b610045565b005b6040516301f7b4f360e41b815260048101829052737109709ecfa91a80626ff3989d68f67f5b1dd12d908190631f7b4f3090602401600060405180830381600087803b15801561009457600080fd5b505af11580156100a8573d6000803e3d6000fd5b505050508143146100bb576100bb610142565b6040516301f7b4f360e41b8152600760048201526001600160a01b03821690631f7b4f3090602401600060405180830381600087803b1580156100fd57600080fd5b505af1158015610111573d6000803e3d6000fd5b505050504360071461012557610125610142565b5050565b60006020828403121561013b57600080fd5b5035919050565b634e487b7160e01b600052600160045260246000fdfea2646970667358221220cef6c50d680fccc538344afad30770b49a816620d25e85289ce82e70b667425264736f6c634300081a0033","linkReferences":{}},"methodIdentifiers":{"test(uint256)":"29e99f07"},"id":29}