{"abi":[{"type":"function","name":"divideByZero","inputs":[],"outputs":[],"stateMutability":"nonpayable"}],"bytecode":{"object":"0x6080604052348015600f57600080fd5b5060ad80601d6000396000f3fe6080604052348015600f57600080fd5b506004361060285760003560e01c806318bb613a14602d575b600080fd5b60336035565b005b602a600080604281846048565b50505050565b600060ff831680606857634e487b7160e01b600052601260045260246000fd5b8060ff8416049150509291505056fea2646970667358221220b2fd30f19f64dadf297e8b3ecf72a88777c9bd9a73b233e398bc9813aa34cfb864736f6c634300081a0033","linkReferences":{}},"methodIdentifiers":{"divideByZero()":"18bb613a"},"id":5}