{"abi":[{"type":"function","name":"property_never_fail","inputs":[],"outputs":[{"name":"","type":"bool","internalType":"bool"}],"stateMutability":"view"},{"type":"function","name":"setBytes","inputs":[{"name":"s","type":"bytes","internalType":"bytes"}],"outputs":[],"stateMutability":"nonpayable"},{"type":"function","name":"setInt","inputs":[{"name":"value","type":"int256","internalType":"int256"}],"outputs":[],"stateMutability":"nonpayable"},{"type":"function","name":"setString","inputs":[{"name":"s","type":"string","internalType":"string"}],"outputs":[],"stateMutability":"nonpayable"},{"type":"function","name":"setUint","inputs":[{"name":"value","type":"uint256","internalType":"uint256"}],"outputs":[],"stateMutability":"nonpayable"}],"bytecode":{"object":"0x60a06040526000608090815260029061001890826100ca565b5034801561002557600080fd5b50610188565b634e487b7160e01b600052604160045260246000fd5b600181811c9082168061005557607f821691505b60208210810361007557634e487b7160e01b600052602260045260246000fd5b50919050565b601f8211156100c557806000526020600020601f840160051c810160208510156100a25750805b601f840160051c820191505b818110156100c257600081556001016100ae565b50505b505050565b81516001600160401b038111156100e3576100e361002b565b6100f7816100f18454610041565b8461007b565b6020601f82116001811461012b57600083156101135750848201515b600019600385901b1c1916600184901b1784556100c2565b600084815260208120601f198516915b8281101561015b578785015182556020948501946001909201910161013b565b50848210156101795786840151600019600387901b60f8161c191681555b50505050600190811b01905550565b610261806101976000396000f3fe608060405234801561001057600080fd5b50600436106100575760003560e01c80634ef65c3b1461005c5780637426f46d14610071578063747586b8146100855780637fcaf66614610098578063da359dc814610098575b600080fd5b61006f61006a3660046100da565b6100b8565b005b604080516001815290519081900360200190f35b61006f6100933660046100da565b6100c9565b61006f6100a6366004610183565b50604080516020810190915260009052565b6100c38160036101ea565b60005550565b6100d4816000610203565b60015550565b6000602082840312156100ec57600080fd5b5035919050565b634e487b7160e01b600052604160045260246000fd5b60008067ffffffffffffffff841115610124576101246100f3565b50604051601f19601f85018116603f0116810181811067ffffffffffffffff82111715610153576101536100f3565b60405283815290508082840185101561016b57600080fd5b83836020830137600060208583010152509392505050565b60006020828403121561019557600080fd5b813567ffffffffffffffff8111156101ac57600080fd5b8201601f810184136101bd57600080fd5b6101cc84823560208401610109565b949350505050565b634e487b7160e01b600052601160045260246000fd5b808201808211156101fd576101fd6101d4565b92915050565b8082018281126000831280158216821582161715610223576102236101d4565b50509291505056fea264697066735822122089984ff61c60c6d252a5f6a8151162f8c02c25b8a11bdee1cc1fda5c5fc3dc9e64736f6c634300081a0033","linkReferences":{}},"methodIdentifiers":{"property_never_fail()":"7426f46d","setBytes(bytes)":"da359dc8","setInt(int256)":"747586b8","setString(string)":"7fcaf666","setUint(uint256)":"4ef65c3b"},"id":55}