{"abi":[{"type":"constructor","inputs":[{"name":"_deployed","type":"address","internalType":"address"}],"stateMutability":"nonpayable"},{"type":"function","name":"dummyFunction","inputs":[{"name":"a","type":"uint256","internalType":"uint256"}],"outputs":[],"stateMutability":"nonpayable"},{"type":"function","name":"property_checkDeployed","inputs":[],"outputs":[{"name":"","type":"bool","internalType":"bool"}],"stateMutability":"nonpayable"}],"bytecode":{"object":"0x6080604052348015600f57600080fd5b50604051610142380380610142833981016040819052602c916050565b600080546001600160a01b0319166001600160a01b0392909216919091179055607e565b600060208284031215606157600080fd5b81516001600160a01b0381168114607757600080fd5b9392505050565b60b68061008c6000396000f3fe6080604052348015600f57600080fd5b506004361060325760003560e01c806323a347091460375780634bf5d844146047575b600080fd5b604560423660046068565b50565b005b6000546001600160a01b031615604051901515815260200160405180910390f35b600060208284031215607957600080fd5b503591905056fea264697066735822122038f2bf92c98e014f87f9098ca02522ff9349c789751ea4d52dc7906fa174910564736f6c634300081a0033","linkReferences":{}},"methodIdentifiers":{"dummyFunction(uint256)":"23a34709","property_checkDeployed()":"4bf5d844"},"id":36}