{"abi":[{"type":"constructor","inputs":[{"name":"_x","type":"uint256","internalType":"uint256"},{"name":"_y","type":"bytes2","internalType":"bytes2"},{"name":"_z","type":"tuple","internalType":"struct DeploymentWithArgs.Abc","components":[{"name":"a","type":"uint256","internalType":"uint256"},{"name":"b","type":"bytes","internalType":"bytes"}]}],"stateMutability":"nonpayable"},{"type":"function","name":"dummyFunction","inputs":[{"name":"a","type":"uint256","internalType":"uint256"}],"outputs":[],"stateMutability":"nonpayable"},{"type":"function","name":"property_checkX","inputs":[],"outputs":[{"name":"","type":"bool","internalType":"bool"}],"stateMutability":"nonpayable"},{"type":"function","name":"property_checkY","inputs":[],"outputs":[{"name":"","type":"bool","internalType":"bool"}],"stateMutability":"nonpayable"},{"type":"function","name":"property_checkZ","inputs":[],"outputs":[{"name":"","type":"bool","internalType":"bool"}],"stateMutability":"nonpayable"}],"bytecode":{"object":"0x608060405234801561001057600080fd5b5060405161043b38038061043b83398101604081905261002f916100db565b60008390556001805461ffff191660f084901c179055805160029081556020820151829190600390610061908261027f565b5090505050505061033d565b634e487b7160e01b600052604160045260246000fd5b604080519081016001600160401b03811182821017156100a5576100a561006d565b60405290565b604051601f8201601f191681016001600160401b03811182821017156100d3576100d361006d565b604052919050565b6000806000606084860312156100f057600080fd5b835160208501519093506001600160f01b03198116811461011057600080fd5b60408501519092506001600160401b0381111561012c57600080fd5b84016040818703121561013e57600080fd5b610146610083565b8151815260208201516001600160401b0381111561016357600080fd5b80830192505086601f83011261017857600080fd5b81516001600160401b038111156101915761019161006d565b6101a4601f8201601f19166020016100ab565b8181528860208386010111156101b957600080fd5b60005b828110156101d8576020818601810151838301820152016101bc565b50600060208383010152806020840152505080925050509250925092565b600181811c9082168061020a57607f821691505b60208210810361022a57634e487b7160e01b600052602260045260246000fd5b50919050565b601f82111561027a57806000526020600020601f840160051c810160208510156102575750805b601f840160051c820191505b818110156102775760008155600101610263565b50505b505050565b81516001600160401b038111156102985761029861006d565b6102ac816102a684546101f6565b84610230565b6020601f8211600181146102e057600083156102c85750848201515b600019600385901b1c1916600184901b178455610277565b600084815260208120601f198516915b8281101561031057878501518255602094850194600190920191016102f0565b508482101561032e5786840151600019600387901b60f8161c191681555b50505050600190811b01905550565b60f08061034b6000396000f3fe6080604052348015600f57600080fd5b506004361060465760003560e01c806323a3470914604b578063355759e214605b578063b7bc37d714607a578063f2f7569e146086575b600080fd5b6059605636600460a2565b50565b005b60005463075bcd1514155b604051901515815260200160405180910390f35b6002546104d214156066565b60015460f01b6001600160f01b03191661546560f01b14156066565b60006020828403121560b357600080fd5b503591905056fea2646970667358221220defe1f02aad67e2ec1be39de8407234d13419c3c0a209ce1e545ff0b314be11b64736f6c634300081a0033","linkReferences":{}},"methodIdentifiers":{"dummyFunction(uint256)":"23a34709","property_checkX()":"355759e2","property_checkY()":"f2f7569e","property_checkZ()":"b7bc37d7"},"id":36}