{"abi":[{"type":"function","name":"checkValue","inputs":[{"name":"x","type":"uint256","internalType":"uint256"}],"outputs":[],"stateMutability":"nonpayable"},{"type":"function","name":"property_solve_me","inputs":[],"outputs":[{"name":"","type":"bool","internalType":"bool"}],"stateMutability":"view"}],"bytecode":{"object":"0x6080604052348015600f57600080fd5b5061020f8061001f6000396000f3fe608060405234801561001057600080fd5b50600436106100365760003560e01c806318db62fb1461003b578063a846fbb914610050575b600080fd5b61004e610049366004610199565b61006a565b005b600054600711604051901515815260200160405180910390f35b60015460ff161561007a57600080fd5b60005415801561008a575080600c145b156100a65760008054908061009e836101b2565b919050555050565b60005460011480156100b85750806017145b156100cc5760008054908061009e836101b2565b60005460021480156100de5750806022145b156100f25760008054908061009e836101b2565b6000546003148015610104575080602d145b156101185760008054908061009e836101b2565b600054600414801561012a5750806038145b1561013e5760008054908061009e836101b2565b60005460051480156101505750806043145b156101645760008054908061009e836101b2565b6000546006148015610176575080604e145b1561018a5760008054908061009e836101b2565b6001805460ff19168117905550565b6000602082840312156101ab57600080fd5b5035919050565b6000600182016101d257634e487b7160e01b600052601160045260246000fd5b506001019056fea2646970667358221220d9eabe2ea49331cd4590ada3bc1c701bcde29bc497d4372c8af92e59765c77f564736f6c634300081a0033","linkReferences":{}},"methodIdentifiers":{"checkValue(uint256)":"18db62fb","property_solve_me()":"a846fbb9"},"id":33}