{"abi":[{"type":"function","name":"failRequire","inputs":[{"name":"value","type":"uint256","internalType":"uint256"}],"outputs":[],"stateMutability":"nonpayable"},{"type":"function","name":"failRevert","inputs":[{"name":"value","type":"uint256","internalType":"uint256"}],"outputs":[],"stateMutability":"nonpayable"}],"bytecode":{"object":"0x6080604052348015600f57600080fd5b50609280601d6000396000f3fe6080604052348015600f57600080fd5b506004361060325760003560e01c806357662d3b14603757806366937dac146037575b600080fd5b604260323660046044565b005b600060208284031215605557600080fd5b503591905056fea264697066735822122031c2e134e3cf953b922f7b08d4853f801a3db02a6e6e9e79cfff7e80a8ac542864736f6c634300081a0033","linkReferences":{}},"methodIdentifiers":{"failRequire(uint256)":"66937dac","failRevert(uint256)":"57662d3b"},"id":10}