{"abi":[{"type":"function","name":"optimize_opt_linear","inputs":[],"outputs":[{"name":"","type":"int256","internalType":"int256"}],"stateMutability":"view"},{"type":"function","name":"set","inputs":[{"name":"_input","type":"int256","internalType":"int256"}],"outputs":[],"stateMutability":"nonpayable"}],"bytecode":{"object":"0x6080604052348015600f57600080fd5b5060fb8061001e6000396000f3fe6080604052348015600f57600080fd5b506004361060325760003560e01c80636110fb94146037578063e5c19b2d14604f575b600080fd5b603d6061565b60405190815260200160405180910390f35b605f605a3660046084565b600055565b005b6000611091196000541315607e57600054607990609c565b905090565b50600090565b600060208284031215609557600080fd5b5035919050565b6000600160ff1b820160be57634e487b7160e01b600052601160045260246000fd5b506000039056fea2646970667358221220c5556d69940f2e61b9c63a9978a0f689ab101905414bab2551029dd17130920464736f6c634300081a0033","linkReferences":{}},"methodIdentifiers":{"optimize_opt_linear()":"6110fb94","set(int256)":"e5c19b2d"},"id":53}