{"abi":[{"type":"constructor","inputs":[],"stateMutability":"nonpayable"},{"type":"function","name":"property_increase_block_number_by_10","inputs":[],"outputs":[{"name":"","type":"bool","internalType":"bool"}],"stateMutability":"view"},{"type":"function","name":"waitBlockNumber","inputs":[],"outputs":[],"stateMutability":"nonpayable"}],"bytecode":{"object":"0x6080604052348015600f57600080fd5b504360005560c58060216000396000f3fe6080604052348015600f57600080fd5b506004361060325760003560e01c80636fa7500e14603757806374ab769c146039575b600080fd5b005b603f6053565b604051901515815260200160405180910390f35b6000600a60005443606391906069565b10919050565b81810381811115608957634e487b7160e01b600052601160045260246000fd5b9291505056fea26469706673582212202987729d830ce6793076abee87ac50b8fafd5ecda29d4f3a15ffa249944fdd4a64736f6c634300081a0033","linkReferences":{}},"methodIdentifiers":{"property_increase_block_number_by_10()":"74ab769c","waitBlockNumber()":"6fa7500e"},"id":65}