{"abi":[{"type":"function","name":"property_library_linking_broken","inputs":[],"outputs":[{"name":"","type":"bool","internalType":"bool"}],"stateMutability":"view"},{"type":"function","name":"testDirect","inputs":[{"name":"x","type":"uint256","internalType":"uint256"}],"outputs":[{"name":"","type":"uint256","internalType":"uint256"}],"stateMutability":"nonpayable"},{"type":"function","name":"testExtension","inputs":[{"name":"x","type":"uint256","internalType":"uint256"},{"name":"y","type":"uint256","internalType":"uint256"}],"outputs":[{"name":"","type":"uint256","internalType":"uint256"}],"stateMutability":"nonpayable"}],"bytecode":{"object":"0x6080604052348015600f57600080fd5b506101568061001f6000396000f3fe608060405234801561001057600080fd5b50600436106100415760003560e01c8063216897c514610046578063307086e31461006c578063ae03f7241461007f575b600080fd5b6100596100543660046100c4565b610095565b6040519081526020015b60405180910390f35b61005961007a3660046100dd565b6100ab565b60005460405160ff909116158152602001610063565b600081806100a381836100ff565b949350505050565b600082806100b981836100ff565b925050505b92915050565b6000602082840312156100d657600080fd5b5035919050565b600080604083850312156100f057600080fd5b50508035926020909101359150565b808201808211156100be57634e487b7160e01b600052601160045260246000fdfea26469706673582212204e1015d2c1af86accc7d31a53a23a9b5a912d580822327b83afccf7f968fb74f64736f6c634300081a0033","linkReferences":{}},"methodIdentifiers":{"property_library_linking_broken()":"ae03f724","testDirect(uint256)":"216897c5","testExtension(uint256,uint256)":"307086e3"},"id":40}