{"abi":[{"type":"constructor","inputs":[],"stateMutability":"nonpayable"},{"type":"function","name":"dummyFunction","inputs":[{"name":"x","type":"uint256","internalType":"uint256"}],"outputs":[],"stateMutability":"nonpayable"}],"bytecode":{"object":"0x6080604052348015600f57600080fd5b50604051601a90605a565b604051809103906000f0801580156035573d6000803e3d6000fd5b50600080546001600160a01b0319166001600160a01b03929092169190911790556066565b6015806100ff83390190565b608b806100746000396000f3fe6080604052348015600f57600080fd5b506004361060285760003560e01c806323a3470914602d575b600080fd5b603b6038366004603d565b50565b005b600060208284031215604e57600080fd5b503591905056fea2646970667358221220f95c7cf03883f55b44d1056f6e090b057e14925ed2973cd2e0af5c8e9e25718a64736f6c634300081a00336080604052348015600f57600080fd5b506000fffe","linkReferences":{}},"methodIdentifiers":{"dummyFunction(uint256)":"23a34709"},"id":42}