{"abi":[{"type":"function","name":"deployInner","inputs":[],"outputs":[{"name":"","type":"address","internalType":"address"}],"stateMutability":"nonpayable"}],"bytecode":{"object":"0x6080604052348015600f57600080fd5b506101528061001f6000396000f3fe6080604052348015600f57600080fd5b506004361060285760003560e01c8063946c372414602d575b600080fd5b6033604f565b6040516001600160a01b03909116815260200160405180910390f35b6000604051605b90607c565b604051809103906000f0801580156076573d6000803e3d6000fd5b50905090565b6094806100898339019056fe6080604052348015600f57600080fd5b50607780601d6000396000f3fe6080604052348015600f57600080fd5b506004361060285760003560e01c8063d2c1decb14602d575b600080fd5b604080516000815290519081900360200190f3fea2646970667358221220b328eb3fabc171ceace7f34216d24da1fbf67cae9beb06731c106a1144af40f264736f6c634300081a0033a2646970667358221220aa76b96c5ff36ccaacee8017a580a098fa3716ba6ada09ef4225889736d918bb64736f6c634300081a0033","linkReferences":{}},"methodIdentifiers":{"deployInner()":"946c3724"},"id":37}