{"abi":[{"type":"function","name":"property_inner_deployment","inputs":[],"outputs":[{"name":"","type":"bool","internalType":"bool"}],"stateMutability":"view"}],"bytecode":{"object":"0x6080604052348015600f57600080fd5b50607780601d6000396000f3fe6080604052348015600f57600080fd5b506004361060285760003560e01c8063d2c1decb14602d575b600080fd5b604080516000815290519081900360200190f3fea2646970667358221220b328eb3fabc171ceace7f34216d24da1fbf67cae9beb06731c106a1144af40f264736f6c634300081a0033","linkReferences":{}},"methodIdentifiers":{"property_inner_deployment()":"d2c1decb"},"id":37}