{"abi":[{"type":"function","name":"test","inputs":[{"name":"x","type":"address","internalType":"address"}],"outputs":[],"stateMutability":"nonpayable"}],"bytecode":{"object":"0x6080604052348015600f57600080fd5b506101c78061001f6000396000f3fe608060405234801561001057600080fd5b506004361061002b5760003560e01c8063bb29998e14610030575b600080fd5b61004361003e36600461014b565b610045565b005b6040516001622df0eb60e21b031981526001600160a01b0382166004820152737109709ecfa91a80626ff3989d68f67f5b1dd12d90819063ff483c5490602401600060405180830381600087803b15801561009f57600080fd5b505af11580156100b3573d6000803e3d6000fd5b50505050816001600160a01b0316416001600160a01b0316146100d8576100d861017b565b6040516001622df0eb60e21b03198152600760048201526001600160a01b0382169063ff483c5490602401600060405180830381600087803b15801561011d57600080fd5b505af1158015610131573d6000803e3d6000fd5b505041600714915061014790505761014761017b565b5050565b60006020828403121561015d57600080fd5b81356001600160a01b038116811461017457600080fd5b9392505050565b634e487b7160e01b600052600160045260246000fdfea264697066735822122067c66c8561070012feaee9a7f7e4cf8d8e6f8a2e7733ff9d0dc5ac2aa219fc4064736f6c634300081a0033","linkReferences":{}},"methodIdentifiers":{"test(address)":"bb29998e"},"id":22}