{"abi":[{"type":"function","name":"incorrectStorageAccess","inputs":[],"outputs":[{"name":"","type":"uint256","internalType":"uint256"}],"stateMutability":"nonpayable"},{"type":"function","name":"myArray","inputs":[{"name":"","type":"uint256","internalType":"uint256"}],"outputs":[{"name":"","type":"uint256","internalType":"uint256"}],"stateMutability":"view"}],"bytecode":{"object":"0x6080604052348015600f57600080fd5b5061010a8061001f6000396000f3fe6080604052348015600f57600080fd5b506004361060325760003560e01c80636ae5097a146037578063cc3e57d914604f575b600080fd5b603d605e565b60405190815260200160405180910390f35b603d605a36600460a6565b6086565b6000806007905060008181548110607557607560be565b906000526020600020015491505090565b60008181548110609557600080fd5b600091825260209091200154905081565b60006020828403121560b757600080fd5b5035919050565b634e487b7160e01b600052603260045260246000fdfea2646970667358221220bfe29e2d7ee31522b69188433871774bd1d5fb332529861e05a228ea9902873c64736f6c634300081a0033","linkReferences":{}},"methodIdentifiers":{"incorrectStorageAccess()":"6ae5097a","myArray(uint256)":"cc3e57d9"},"id":9}