{"abi":[{"type":"fallback","stateMutability":"nonpayable"},{"type":"function","name":"checkMulDivRoundingUp","inputs":[{"name":"x","type":"uint256","internalType":"uint256"},{"name":"y","type":"uint256","internalType":"uint256"},{"name":"d","type":"uint256","internalType":"uint256"}],"outputs":[],"stateMutability":"pure"}],"bytecode":{"object":"0x6080604052348015600f57600080fd5b506102948061001f6000396000f3fe608060405234801561001057600080fd5b506004361061002b5760003560e01c806379eee4871461002d575b005b61002b61003b3660046101df565b6000811161004857600080fd5b60006100558484846100f1565b9050831580610062575082155b1561007b5780156100755761007561020b565b50505050565b600061008882848661012d565b9050600061009783858861012d565b9050858210156100a9576100a961020b565b848110156100b9576100b961020b565b836100c48784610221565b106100d1576100d161020b565b836100dc8683610221565b106100e9576100e961020b565b505050505050565b600080828061010257610102610248565b84860911610111576000610114565b60015b60ff1661012285858561012d565b0190505b9392505050565b6000808060001985870985870292508281108382030391505080600003610166576000841161015b57600080fd5b508290049050610126565b80841161017257600080fd5b6000848688096000868103871696879004966002600389028118808a02820302808a02820302808a02820302808a02820302808a02820302808a02909103029181900381900460010186841190950394909402919094039290920491909117919091029150509392505050565b6000806000606084860312156101f457600080fd5b505081359360208301359350604090920135919050565b634e487b7160e01b600052600160045260246000fd5b8181038181111561024257634e487b7160e01b600052601160045260246000fd5b92915050565b634e487b7160e01b600052601260045260246000fdfea2646970667358221220496b6d2e9ebd1d596bb86ebc1c3d43afd4a255532815a2098dd943ff4327e04164736f6c634300081a0033","linkReferences":{}},"methodIdentifiers":{"checkMulDivRoundingUp(uint256,uint256,uint256)":"79eee487"},"id":4}