{"abi":[{"type":"function","name":"callingMeFails","inputs":[{"name":"value","type":"uint256","internalType":"uint256"}],"outputs":[],"stateMutability":"nonpayable"}],"bytecode":{"object":"0x6080604052348015600f57600080fd5b5060ab80601d6000396000f3fe6080604052348015600f57600080fd5b506004361060285760003560e01c8063f70d160b14602d575b600080fd5b603c60383660046047565b603e565b005b6044605f565b50565b600060208284031215605857600080fd5b5035919050565b634e487b7160e01b600052600160045260246000fdfea26469706673582212203b8eee6d90f43f58b8a82e6683e75fa7ea31bc1ffb665c7e5a66cd8366eece2064736f6c634300081a0033","linkReferences":{}},"methodIdentifiers":{"callingMeFails(uint256)":"f70d160b"},"id":8}