{"abi":[{"type":"function","name":"failing_assertion_method_child","inputs":[{"name":"x","type":"uint256","internalType":"uint256"}],"outputs":[],"stateMutability":"nonpayable"},{"type":"function","name":"property_failing_property_test_method_child","inputs":[],"outputs":[{"name":"","type":"bool","internalType":"bool"}],"stateMutability":"view"}],"bytecode":{"object":"0x6080604052348015600f57600080fd5b5060c980601d6000396000f3fe6080604052348015600f57600080fd5b506004361060325760003560e01c80635e57dbe91460375780637866f31414604b575b600080fd5b604080516000815290519081900360200190f35b605a60563660046065565b605c565b005b6062607d565b50565b600060208284031215607657600080fd5b5035919050565b634e487b7160e01b600052600160045260246000fdfea2646970667358221220d499411567dba7df4df4dcba974cc32fb8f943b8f5f77e7819974b6b70ef8e0264736f6c634300081a0033","linkReferences":{}},"methodIdentifiers":{"failing_assertion_method_child(uint256)":"7866f314","property_failing_property_test_method_child()":"5e57dbe9"},"id":44}