{"abi":[{"type":"constructor","inputs":[],"stateMutability":"nonpayable"},{"type":"function","name":"failing_assertion_method","inputs":[{"name":"x","type":"uint256","internalType":"uint256"}],"outputs":[],"stateMutability":"nonpayable"},{"type":"function","name":"property_failing_property_test_method","inputs":[],"outputs":[{"name":"","type":"bool","internalType":"bool"}],"stateMutability":"view"}],"bytecode":{"object":"0x6080604052348015600f57600080fd5b50604051601a90605a565b604051809103906000f0801580156035573d6000803e3d6000fd5b50600080546001600160a01b0319166001600160a01b03929092169190911790556066565b60e68061013d83390190565b60c9806100746000396000f3fe6080604052348015600f57600080fd5b506004361060325760003560e01c8063892ce692146037578063e19249a114604b575b600080fd5b604080516000815290519081900360200190f35b605a60563660046065565b605c565b005b6062607d565b50565b600060208284031215607657600080fd5b5035919050565b634e487b7160e01b600052600160045260246000fdfea2646970667358221220d296fbf68c677b376737348e1df941dd7189d7655442a12dbce37ab7b0c9ce0564736f6c634300081a00336080604052348015600f57600080fd5b5060c980601d6000396000f3fe6080604052348015600f57600080fd5b506004361060325760003560e01c80635e57dbe91460375780637866f31414604b575b600080fd5b604080516000815290519081900360200190f35b605a60563660046065565b605c565b005b6062607d565b50565b600060208284031215607657600080fd5b5035919050565b634e487b7160e01b600052600160045260246000fdfea2646970667358221220d499411567dba7df4df4dcba974cc32fb8f943b8f5f77e7819974b6b70ef8e0264736f6c634300081a0033","linkReferences":{}},"methodIdentifiers":{"failing_assertion_method(uint256)":"e19249a1","property_failing_property_test_method()":"892ce692"},"id":44}